{"abi":[{"type":"function","name":"approveRentReceived","inputs":[{"name":"_contractId","type":"uint256","internalType":"uint256"},{"name":"_paymentId","type":"uint256","internalType":"uint256"}],"outputs":[],"stateMutability":"nonpayable"},{"type":"function","name":"checkPaymentStatus","inputs":[{"name":"contractId","type":"uint256","internalType":"uint256"}],"outputs":[],"stateMutability":"nonpayable"},{"type":"function","name":"contractCount","inputs":[],"outputs":[{"name":"","type":"uint256","internalType":"uint256"}],"stateMutability":"view"},{"type":"function","name":"contractSignatures","inputs":[{"name":"","type":"uint256","internalType":"uint256"},{"name":"","type":"address","internalType":"address"}],"outputs":[{"name":"","type":"bool","internalType":"bool"}],"stateMutability":"view"},{"type":"function","name":"contracts","inputs":[{"name":"","type":"uint256","internalType":"uint256"}],"outputs":[{"name":"id","type":"uint256","internalType":"uint256"},{"name":"lessor","type":"address","internalType":"address"},{"name":"lease","type":"address","internalType":"address"},{"name":"monthlyRent","type":"uint256","internalType":"uint256"},{"name":"deposit","type":"uint256","internalType":"uint256"},{"name":"paymentDue","type":"uint256","internalType":"uint256"},{"name":"gracePeriod","type":"uint256","internalType":"uint256"},{"name":"startDate","type":"uint256","internalType":"uint256"},{"name":"endDate","type":"uint256","internalType":"uint256"},{"name":"isActive","type":"bool","internalType":"bool"},{"name":"period","type":"uint256","internalType":"uint256"},{"name":"property","type":"tuple","internalType":"struct RentProperty.Property","components":[{"name":"id","type":"uint256","internalType":"uint256"},{"name":"propertyAddress","type":"string","internalType":"string"},{"name":"city","type":"string","internalType":"string"},{"name":"country","type":"string","internalType":"string"},{"name":"owner","type":"address","internalType":"address"},{"name":"description","type":"string","internalType":"string"}]}],"stateMutability":"view"},{"type":"function","name":"createRentContract","inputs":[{"name":"_id","type":"uint256","internalType":"uint256"},{"name":"_lessor","type":"address","internalType":"address"},{"name":"_lease","type":"address","internalType":"address"},{"name":"_monthlyRent","type":"uint256","internalType":"uint256"},{"name":"_deposit","type":"uint256","internalType":"uint256"},{"name":"_paymentDue","type":"uint256","internalType":"uint256"},{"name":"_gracePeriod","type":"uint256","internalType":"uint256"},{"name":"_startDate","type":"uint256","internalType":"uint256"},{"name":"_endDate","type":"uint256","internalType":"uint256"},{"name":"_period","type":"uint256","internalType":"uint256"},{"name":"propertyId","type":"uint256","internalType":"uint256"}],"outputs":[],"stateMutability":"nonpayable"},{"type":"function","name":"getContractById","inputs":[{"name":"contractId","type":"uint256","internalType":"uint256"}],"outputs":[{"name":"","type":"tuple","internalType":"struct RentProperty.Contract","components":[{"name":"id","type":"uint256","internalType":"uint256"},{"name":"lessor","type":"address","internalType":"address"},{"name":"lease","type":"address","internalType":"address"},{"name":"monthlyRent","type":"uint256","internalType":"uint256"},{"name":"deposit","type":"uint256","internalType":"uint256"},{"name":"paymentDue","type":"uint256","internalType":"uint256"},{"name":"gracePeriod","type":"uint256","internalType":"uint256"},{"name":"startDate","type":"uint256","internalType":"uint256"},{"name":"endDate","type":"uint256","internalType":"uint256"},{"name":"isActive","type":"bool","internalType":"bool"},{"name":"period","type":"uint256","internalType":"uint256"},{"name":"property","type":"tuple","internalType":"struct RentProperty.Property","components":[{"name":"id","type":"uint256","internalType":"uint256"},{"name":"propertyAddress","type":"string","internalType":"string"},{"name":"city","type":"string","internalType":"string"},{"name":"country","type":"string","internalType":"string"},{"name":"owner","type":"address","internalType":"address"},{"name":"description","type":"string","internalType":"string"}]}]}],"stateMutability":"view"},{"type":"function","name":"getPaymentsByContractIdAndPaymentId","inputs":[{"name":"contractId","type":"uint256","internalType":"uint256"},{"name":"paymentId","type":"uint256","internalType":"uint256"}],"outputs":[{"name":"","type":"tuple","internalType":"struct RentProperty.Payment","components":[{"name":"id","type":"uint256","internalType":"uint256"},{"name":"dueDate","type":"uint256","internalType":"uint256"},{"name":"paid","type":"bool","internalType":"bool"},{"name":"approved","type":"bool","internalType":"bool"}]}],"stateMutability":"view"},{"type":"function","name":"getPropertyById","inputs":[{"name":"propertyId","type":"uint256","internalType":"uint256"}],"outputs":[{"name":"","type":"tuple","internalType":"struct RentProperty.Property","components":[{"name":"id","type":"uint256","internalType":"uint256"},{"name":"propertyAddress","type":"string","internalType":"string"},{"name":"city","type":"string","internalType":"string"},{"name":"country","type":"string","internalType":"string"},{"name":"owner","type":"address","internalType":"address"},{"name":"description","type":"string","internalType":"string"}]}],"stateMutability":"view"},{"type":"function","name":"isContractSigned","inputs":[{"name":"contractId","type":"uint256","internalType":"uint256"}],"outputs":[{"name":"","type":"bool","internalType":"bool"}],"stateMutability":"view"},{"type":"function","name":"listPropertyForRent","inputs":[{"name":"_id","type":"uint256","internalType":"uint256"},{"name":"_propertyAddress","type":"string","internalType":"string"},{"name":"_city","type":"string","internalType":"string"},{"name":"_country","type":"string","internalType":"string"},{"name":"_description","type":"string","internalType":"string"}],"outputs":[],"stateMutability":"nonpayable"},{"type":"function","name":"payRent","inputs":[{"name":"contractId","type":"uint256","internalType":"uint256"},{"name":"paymentId","type":"uint256","internalType":"uint256"}],"outputs":[],"stateMutability":"payable"},{"type":"function","name":"payments","inputs":[{"name":"","type":"uint256","internalType":"uint256"},{"name":"","type":"uint256","internalType":"uint256"}],"outputs":[{"name":"id","type":"uint256","internalType":"uint256"},{"name":"dueDate","type":"uint256","internalType":"uint256"},{"name":"paid","type":"bool","internalType":"bool"},{"name":"approved","type":"bool","internalType":"bool"}],"stateMutability":"view"},{"type":"function","name":"propertiesCount","inputs":[],"outputs":[{"name":"","type":"uint256","internalType":"uint256"}],"stateMutability":"view"},{"type":"function","name":"signContract","inputs":[{"name":"contractId","type":"uint256","internalType":"uint256"}],"outputs":[],"stateMutability":"nonpayable"},{"type":"event","name":"ContractActivated","inputs":[{"name":"contractId","type":"uint256","indexed":false,"internalType":"uint256"}],"anonymous":false},{"type":"event","name":"ContractCreated","inputs":[{"name":"contractId","type":"uint256","indexed":false,"internalType":"uint256"}],"anonymous":false},{"type":"event","name":"ContractSigned","inputs":[{"name":"contractId","type":"uint256","indexed":false,"internalType":"uint256"},{"name":"signer","type":"address","indexed":false,"internalType":"address"}],"anonymous":false},{"type":"event","name":"ContractTerminated","inputs":[{"name":"contractId","type":"uint256","indexed":false,"internalType":"uint256"},{"name":"paymentId","type":"uint256","indexed":false,"internalType":"uint256"},{"name":"lease","type":"address","indexed":false,"internalType":"address"},{"name":"reason","type":"string","indexed":false,"internalType":"string"}],"anonymous":false},{"type":"event","name":"PaymentsForContractCreated","inputs":[{"name":"contractId","type":"uint256","indexed":false,"internalType":"uint256"}],"anonymous":false},{"type":"event","name":"PropertyListedForRent","inputs":[{"name":"propertyId","type":"uint256","indexed":false,"internalType":"uint256"},{"name":"owner","type":"address","indexed":false,"internalType":"address"}],"anonymous":false},{"type":"event","name":"RentApproved","inputs":[{"name":"contractId","type":"uint256","indexed":false,"internalType":"uint256"},{"name":"paymentId","type":"uint256","indexed":false,"internalType":"uint256"}],"anonymous":false},{"type":"event","name":"RentPaid","inputs":[{"name":"lease","type":"address","indexed":false,"internalType":"address"},{"name":"contractId","type":"uint256","indexed":false,"internalType":"uint256"},{"name":"paymentId","type":"uint256","indexed":false,"internalType":"uint256"},{"name":"timestamp","type":"uint256","indexed":false,"internalType":"uint256"}],"anonymous":false}],"bytecode":{"object":"0x60806040526000600155600060055534801561001a57600080fd5b506132fb8061002a6000396000f3fe6080604052600436106100e85760003560e01c80638736381a1161008a5780639ee5872d116100595780639ee5872d14610322578063c56ac4b614610342578063d0153bb91461037d578063fc2bf8f01461039d57600080fd5b80638736381a1461028f5780638ba9ac6f146102a557806393a43c19146102d25780639537e8d11461030257600080fd5b80632dd6ad2b116100c65780632dd6ad2b146101b3578063474da79a146101d357806359fe18eb1461020b578063615b60891461023857600080fd5b8063089befe3146100ed57806311447e871461010f5780632655bd7314610138575b600080fd5b3480156100f957600080fd5b5061010d610108366004612c80565b6103b0565b005b34801561011b57600080fd5b5061012560015481565b6040519081526020015b60405180910390f35b34801561014457600080fd5b5061018b610153366004612d07565b600460209081526000928352604080842090915290825290208054600182015460029092015490919060ff8082169161010090041684565b604080519485526020850193909352901515918301919091521515606082015260800161012f565b3480156101bf57600080fd5b5061010d6101ce366004612d29565b61085d565b3480156101df57600080fd5b506101f36101ee366004612d29565b610cfb565b60405161012f9c9b9a99989796959493929190612e0f565b34801561021757600080fd5b5061022b610226366004612d29565b610fe1565b60405161012f9190612e8a565b34801561024457600080fd5b50610258610253366004612d07565b61127a565b60405161012f9190815181526020808301519082015260408083015115159082015260609182015115159181019190915260800190565b34801561029b57600080fd5b5061012560055481565b3480156102b157600080fd5b506102c56102c0366004612d29565b6112f1565b60405161012f9190612e9d565b3480156102de57600080fd5b506102f26102ed366004612d29565b611617565b604051901515815260200161012f565b34801561030e57600080fd5b5061010d61031d366004612d29565b611996565b34801561032e57600080fd5b5061010d61033d366004612d07565b611bb0565b34801561034e57600080fd5b506102f261035d366004612f64565b600260209081526000928352604080842090915290825290205460ff1681565b34801561038957600080fd5b5061010d610398366004613033565b612007565b61010d6103ab366004612d07565b61211e565b6000806000838152602001908152602001600020905060006040518061018001604052808e81526020018d6001600160a01b031681526020018c6001600160a01b031681526020018b81526020018a8152602001898152602001888152602001878152602001868152602001600015158152602001858152602001836040518060c001604052908160008201548152602001600182018054610451906130ea565b80601f016020809104026020016040519081016040528092919081815260200182805461047d906130ea565b80156104ca5780601f1061049f576101008083540402835291602001916104ca565b820191906000526020600020905b8154815290600101906020018083116104ad57829003601f168201915b505050505081526020016002820180546104e3906130ea565b80601f016020809104026020016040519081016040528092919081815260200182805461050f906130ea565b801561055c5780601f106105315761010080835404028352916020019161055c565b820191906000526020600020905b81548152906001019060200180831161053f57829003601f168201915b50505050508152602001600382018054610575906130ea565b80601f01602080910402602001604051908101604052809291908181526020018280546105a1906130ea565b80156105ee5780601f106105c3576101008083540402835291602001916105ee565b820191906000526020600020905b8154815290600101906020018083116105d157829003601f168201915b505050918352505060048201546001600160a01b0316602082015260058201805460409092019161061e906130ea565b80601f016020809104026020016040519081016040528092919081815260200182805461064a906130ea565b80156106975780601f1061066c57610100808354040283529160200191610697565b820191906000526020600020905b81548152906001019060200180831161067a57829003601f168201915b5050509190925250505090526005805460009081526003602081815260409283902085518155858201516001820180546001600160a01b03199081166001600160a01b0393841617909155948701516002830180549096169116179093556060850151918301919091556080840151600483015560a08401519282019290925560c0830151600682015560e08301516007820155610100830151600882015561012083015160098201805460ff1916911515919091179055610140830151600a8201556101608301518051600b830190815592810151939450849391929091600c8401906107859082613175565b506040820151600282019061079a9082613175565b50606082015160038201906107af9082613175565b5060808201516004820180546001600160a01b0319166001600160a01b0390921691909117905560a082015160058201906107ea9082613175565b505083516040519081527f9e3c7e008a15a3c864482ee94fd7315bcc9d0c04f3a9041ab922f816acffbe06935060200191506108239050565b60405180910390a161083984878a600554612738565b600580549060006108498361324b565b919050555050505050505050505050505050565b60008181526003602081815260408084208151610180810183528154815260018201546001600160a01b03908116828601526002830154168184015293810154606085015260048101546080850152600581015460a0850152600681015460c080860191909152600782015460e08601526008820154610100860152600982015460ff161515610120860152600a8201546101408601528251908101909252600b810180548352600c820180549294610160870194939084019190610921906130ea565b80601f016020809104026020016040519081016040528092919081815260200182805461094d906130ea565b801561099a5780601f1061096f5761010080835404028352916020019161099a565b820191906000526020600020905b81548152906001019060200180831161097d57829003601f168201915b505050505081526020016002820180546109b3906130ea565b80601f01602080910402602001604051908101604052809291908181526020018280546109df906130ea565b8015610a2c5780601f10610a0157610100808354040283529160200191610a2c565b820191906000526020600020905b815481529060010190602001808311610a0f57829003601f168201915b50505050508152602001600382018054610a45906130ea565b80601f0160208091040260200160405190810160405280929190818152602001828054610a71906130ea565b8015610abe5780601f10610a9357610100808354040283529160200191610abe565b820191906000526020600020905b815481529060010190602001808311610aa157829003601f168201915b505050918352505060048201546001600160a01b03166020820152600582018054604090920191610aee906130ea565b80601f0160208091040260200160405190810160405280929190818152602001828054610b1a906130ea565b8015610b675780601f10610b3c57610100808354040283529160200191610b67565b820191906000526020600020905b815481529060010190602001808311610b4a57829003601f168201915b50505091909252505050905250600083815260046020908152604090912090820151919250906001600160a01b0316331480610bb8575081604001516001600160a01b0316336001600160a01b0316145b610bff5760405162461bcd60e51b8152602060048201526013602482015272556e617574686f72697a65642061636365737360681b60448201526064015b60405180910390fd5b816101200151610c4b5760405162461bcd60e51b815260206004820152601760248201527621b7b73a3930b1ba1034b9903737ba1030b1ba34bb329760491b6044820152606401610bf6565b60005b826101400151811015610cf55760008181526020839052604090206002015460ff16158015610c9c575060c0830151600082815260208490526040902060010154610c999190613264565b42115b15610ced57610ced84836000848152602001908152602001600020600001546040518060400160405280601481526020017352656e7420746f2070616964206f6e2074696d6560601b81525061284f565b600101610c4e565b50505050565b60036020818152600092835260409283902080546001820154600283015494830154600484015460058501546006860154600787015460088801546009890154600a8a01548d5160c08101909e52600b8b0180548f52600c8c0180549b9f6001600160a01b039b8c169f909b169d999c989b979a96999598949760ff90941696929592939192840191610d8d906130ea565b80601f0160208091040260200160405190810160405280929190818152602001828054610db9906130ea565b8015610e065780601f10610ddb57610100808354040283529160200191610e06565b820191906000526020600020905b815481529060010190602001808311610de957829003601f168201915b50505050508152602001600282018054610e1f906130ea565b80601f0160208091040260200160405190810160405280929190818152602001828054610e4b906130ea565b8015610e985780601f10610e6d57610100808354040283529160200191610e98565b820191906000526020600020905b815481529060010190602001808311610e7b57829003601f168201915b50505050508152602001600382018054610eb1906130ea565b80601f0160208091040260200160405190810160405280929190818152602001828054610edd906130ea565b8015610f2a5780601f10610eff57610100808354040283529160200191610f2a565b820191906000526020600020905b815481529060010190602001808311610f0d57829003601f168201915b505050918352505060048201546001600160a01b03166020820152600582018054604090920191610f5a906130ea565b80601f0160208091040260200160405190810160405280929190818152602001828054610f86906130ea565b8015610fd35780601f10610fa857610100808354040283529160200191610fd3565b820191906000526020600020905b815481529060010190602001808311610fb657829003601f168201915b50505050508152505090508c565b610fe9612bab565b60008060008481526020019081526020016000206040518060c001604052908160008201548152602001600182018054611022906130ea565b80601f016020809104026020016040519081016040528092919081815260200182805461104e906130ea565b801561109b5780601f106110705761010080835404028352916020019161109b565b820191906000526020600020905b81548152906001019060200180831161107e57829003601f168201915b505050505081526020016002820180546110b4906130ea565b80601f01602080910402602001604051908101604052809291908181526020018280546110e0906130ea565b801561112d5780601f106111025761010080835404028352916020019161112d565b820191906000526020600020905b81548152906001019060200180831161111057829003601f168201915b50505050508152602001600382018054611146906130ea565b80601f0160208091040260200160405190810160405280929190818152602001828054611172906130ea565b80156111bf5780601f10611194576101008083540402835291602001916111bf565b820191906000526020600020905b8154815290600101906020018083116111a257829003601f168201915b505050918352505060048201546001600160a01b031660208201526005820180546040909201916111ef906130ea565b80601f016020809104026020016040519081016040528092919081815260200182805461121b906130ea565b80156112685780601f1061123d57610100808354040283529160200191611268565b820191906000526020600020905b81548152906001019060200180831161124b57829003601f168201915b50505091909252509195945050505050565b60408051608080820183526000808352602080840182905283850182905260609384018290528682526004815284822086835281529084902084519283018552805483526001810154918301919091526002015460ff80821615159483019490945261010090049092161515908201525b92915050565b6112f9612bea565b60008281526003602081815260408084208151610180810183528154815260018201546001600160a01b03908116828601526002830154168184015293810154606085015260048101546080850152600581015460a0850152600681015460c080860191909152600782015460e08601526008820154610100860152600982015460ff161515610120860152600a8201546101408601528251908101909252600b810180548352600c8201805492946101608701949390840191906113bd906130ea565b80601f01602080910402602001604051908101604052809291908181526020018280546113e9906130ea565b80156114365780601f1061140b57610100808354040283529160200191611436565b820191906000526020600020905b81548152906001019060200180831161141957829003601f168201915b5050505050815260200160028201805461144f906130ea565b80601f016020809104026020016040519081016040528092919081815260200182805461147b906130ea565b80156114c85780601f1061149d576101008083540402835291602001916114c8565b820191906000526020600020905b8154815290600101906020018083116114ab57829003601f168201915b505050505081526020016003820180546114e1906130ea565b80601f016020809104026020016040519081016040528092919081815260200182805461150d906130ea565b801561155a5780601f1061152f5761010080835404028352916020019161155a565b820191906000526020600020905b81548152906001019060200180831161153d57829003601f168201915b505050918352505060048201546001600160a01b0316602082015260058201805460409092019161158a906130ea565b80601f01602080910402602001604051908101604052809291908181526020018280546115b6906130ea565b80156116035780601f106115d857610100808354040283529160200191611603565b820191906000526020600020905b8154815290600101906020018083116115e657829003601f168201915b505050919092525050509052509392505050565b60008181526003602081815260408084208151610180810183528154815260018201546001600160a01b03908116828601526002830154168184015293810154606085015260048101546080850152600581015460a0850152600681015460c080860191909152600782015460e08601526008820154610100860152600982015460ff161515610120860152600a8201546101408601528251908101909252600b810180548352600c820180548796959394610160870194909392908401916116df906130ea565b80601f016020809104026020016040519081016040528092919081815260200182805461170b906130ea565b80156117585780601f1061172d57610100808354040283529160200191611758565b820191906000526020600020905b81548152906001019060200180831161173b57829003601f168201915b50505050508152602001600282018054611771906130ea565b80601f016020809104026020016040519081016040528092919081815260200182805461179d906130ea565b80156117ea5780601f106117bf576101008083540402835291602001916117ea565b820191906000526020600020905b8154815290600101906020018083116117cd57829003601f168201915b50505050508152602001600382018054611803906130ea565b80601f016020809104026020016040519081016040528092919081815260200182805461182f906130ea565b801561187c5780601f106118515761010080835404028352916020019161187c565b820191906000526020600020905b81548152906001019060200180831161185f57829003601f168201915b505050918352505060048201546001600160a01b031660208201526005820180546040909201916118ac906130ea565b80601f01602080910402602001604051908101604052809291908181526020018280546118d8906130ea565b80156119255780601f106118fa57610100808354040283529160200191611925565b820191906000526020600020905b81548152906001019060200180831161190857829003601f168201915b505050919092525050509052506000848152600260209081526040808320828501516001600160a01b0316845290915290205490915060ff16801561198f57506000838152600260209081526040808320848201516001600160a01b0316845290915290205460ff165b9392505050565b600081815260036020526040902060018101546001600160a01b03163314806119cb575060028101546001600160a01b031633145b611a285760405162461bcd60e51b815260206004820152602860248201527f5369676e65722068617320746f20626520656974686572206c6573736f72206f60448201526739103632b0b9b29760c11b6064820152608401610bf6565b600082815260026020908152604080832033845290915290205460ff1615611aa45760405162461bcd60e51b815260206004820152602960248201527f436f6e747261637420697320616c7265616479207369676e6564206279207468604482015268329039b4b3b732b29760b91b6064820152608401610bf6565b60008281526002602090815260408083203380855290835292819020805460ff191660011790558051858152918201929092527fcd3b1fcca80f9caae633c3e13546995d3810e561957af92839f070c46571942c910160405180910390a1600082815260026020908152604080832060018501546001600160a01b0316845290915290205460ff168015611b5d57506000828152600260208181526040808420928501546001600160a01b0316845291905290205460ff165b15611bac5760098101805460ff191660011790556040517f73edfb7736e2a79d626edb978d46bcd467644e8a44cbe706358022b6a6d361ec90611ba39084815260200190565b60405180910390a15b5050565b60008281526003602081815260408084208151610180810183528154815260018201546001600160a01b03908116828601526002830154168184015293810154606085015260048101546080850152600581015460a0850152600681015460c080860191909152600782015460e08601526008820154610100860152600982015460ff161515610120860152600a8201546101408601528251908101909252600b810180548352600c820180549294610160870194939084019190611c74906130ea565b80601f0160208091040260200160405190810160405280929190818152602001828054611ca0906130ea565b8015611ced5780601f10611cc257610100808354040283529160200191611ced565b820191906000526020600020905b815481529060010190602001808311611cd057829003601f168201915b50505050508152602001600282018054611d06906130ea565b80601f0160208091040260200160405190810160405280929190818152602001828054611d32906130ea565b8015611d7f5780601f10611d5457610100808354040283529160200191611d7f565b820191906000526020600020905b815481529060010190602001808311611d6257829003601f168201915b50505050508152602001600382018054611d98906130ea565b80601f0160208091040260200160405190810160405280929190818152602001828054611dc4906130ea565b8015611e115780601f10611de657610100808354040283529160200191611e11565b820191906000526020600020905b815481529060010190602001808311611df457829003601f168201915b505050918352505060048201546001600160a01b03166020820152600582018054604090920191611e41906130ea565b80601f0160208091040260200160405190810160405280929190818152602001828054611e6d906130ea565b8015611eba5780601f10611e8f57610100808354040283529160200191611eba565b820191906000526020600020905b815481529060010190602001808311611e9d57829003601f168201915b50505050508152505081525050905080602001516001600160a01b0316336001600160a01b031614611f435760405162461bcd60e51b815260206004820152602c60248201527f4f6e6c79206c6573736f722063616e20617070726f76652072656e742062656960448201526b3733903932b1b2b4bb32b21760a11b6064820152608401610bf6565b600083815260046020908152604080832085845290915290206002810154610100900460ff1615611fb65760405162461bcd60e51b815260206004820152601c60248201527f5061796d656e7420697320616c726561647920617070726f7665642e000000006044820152606401610bf6565b60028101805461ff00191661010017905560408051858152602081018590527f5110597352822d9823429fb693bb377b5b4f716bd69f2419b80655e321be91c191015b60405180910390a150505050565b6040805160c08101825286815260208082018781528284018790526060830186905233608084015260a083018590526001805460009081529283905293909120825181559051919283929082019061205f9082613175565b50604082015160028201906120749082613175565b50606082015160038201906120899082613175565b5060808201516004820180546001600160a01b0319166001600160a01b0390921691909117905560a082015160058201906120c49082613175565b505060018054915060006120d78361324b565b90915550508051604080519182523360208301527f6d1df3f8f7b05059a3dc98f63e0b87dcc88128522891dbff1182e72016faf96b910160405180910390a1505050505050565b60008281526003602081815260408084208151610180810183528154815260018201546001600160a01b03908116828601526002830154168184015293810154606085015260048101546080850152600581015460a0850152600681015460c080860191909152600782015460e08601526008820154610100860152600982015460ff161515610120860152600a8201546101408601528251908101909252600b810180548352600c8201805492946101608701949390840191906121e2906130ea565b80601f016020809104026020016040519081016040528092919081815260200182805461220e906130ea565b801561225b5780601f106122305761010080835404028352916020019161225b565b820191906000526020600020905b81548152906001019060200180831161223e57829003601f168201915b50505050508152602001600282018054612274906130ea565b80601f01602080910402602001604051908101604052809291908181526020018280546122a0906130ea565b80156122ed5780601f106122c2576101008083540402835291602001916122ed565b820191906000526020600020905b8154815290600101906020018083116122d057829003601f168201915b50505050508152602001600382018054612306906130ea565b80601f0160208091040260200160405190810160405280929190818152602001828054612332906130ea565b801561237f5780601f106123545761010080835404028352916020019161237f565b820191906000526020600020905b81548152906001019060200180831161236257829003601f168201915b505050918352505060048201546001600160a01b031660208201526005820180546040909201916123af906130ea565b80601f01602080910402602001604051908101604052809291908181526020018280546123db906130ea565b80156124285780601f106123fd57610100808354040283529160200191612428565b820191906000526020600020905b81548152906001019060200180831161240b57829003601f168201915b5050509190925250505090525060008481526004602090815260408083208684528252918290208251608081018452815481526001820154928101929092526002015460ff808216151583850152610100909104161515606082015290820151919250906001600160a01b031633146124e35760405162461bcd60e51b815260206004820152601860248201527f4f6e6c79206c656173652063616e207061792072656e742e00000000000000006044820152606401610bf6565b81610120015161252f5760405162461bcd60e51b815260206004820152601760248201527621b7b73a3930b1ba1034b9903737ba1030b1ba34bb329760491b6044820152606401610bf6565b8160600151341461257a5760405162461bcd60e51b815260206004820152601560248201527424b731b7b93932b1ba103932b73a103b30b63ab29760591b6044820152606401610bf6565b816060015134146125c55760405162461bcd60e51b815260206004820152601560248201527424b731b7b93932b1ba103932b73a103b30b63ab29760591b6044820152606401610bf6565b8060400151156126275760405162461bcd60e51b815260206004820152602760248201527f54686973207061796d656e742068617320616c7265616479206265656e20706160448201526634b2103337b91760c91b6064820152608401610bf6565b600082602001516001600160a01b03163460405160006040518083038185875af1925050503d8060008114612678576040519150601f19603f3d011682016040523d82523d6000602084013e61267d565b606091505b50509050806126c55760405162461bcd60e51b81526020600482015260146024820152732330b4b632b2103a379039b2b732103932b73a1760611b6044820152606401610bf6565b6000858152600460209081526040808320878452825291829020600201805460ff1916600117905581513381529081018790529081018590524260608201527f2d2423890bc33b8290b6bf4c590927cc8a367ef6c70744a602984e45a4bf11779060800160405180910390a15050505050565b60005b8481101561281e576000612750826001613264565b61275a9085613277565b905060006127b68361276c8489613264565b604080516080810182526000808252602082018190529181018290526060810191909152506040805160808101825292835260208301919091526000908201819052606082015290565b60008581526004602090815260408083208784528252918290208351815590830151600180830191909155918301516002909101805460609094015115156101000261ff00199215159290921661ffff199094169390931717909155909201915061273b9050565b506040518181527fb151c83bca2c7216c7fb7d05eda52844b4f24a1be7aa549c44f5c46e94aa456390602001611ff9565b60008381526003602081815260408084208151610180810183528154815260018201546001600160a01b03908116828601526002830154168184015293810154606085015260048101546080850152600581015460a0850152600681015460c080860191909152600782015460e08601526008820154610100860152600982015460ff161515610120860152600a8201546101408601528251908101909252600b810180548352600c820180549294610160870194939084019190612913906130ea565b80601f016020809104026020016040519081016040528092919081815260200182805461293f906130ea565b801561298c5780601f106129615761010080835404028352916020019161298c565b820191906000526020600020905b81548152906001019060200180831161296f57829003601f168201915b505050505081526020016002820180546129a5906130ea565b80601f01602080910402602001604051908101604052809291908181526020018280546129d1906130ea565b8015612a1e5780601f106129f357610100808354040283529160200191612a1e565b820191906000526020600020905b815481529060010190602001808311612a0157829003601f168201915b50505050508152602001600382018054612a37906130ea565b80601f0160208091040260200160405190810160405280929190818152602001828054612a63906130ea565b8015612ab05780601f10612a8557610100808354040283529160200191612ab0565b820191906000526020600020905b815481529060010190602001808311612a9357829003601f168201915b505050918352505060048201546001600160a01b03166020820152600582018054604090920191612ae0906130ea565b80601f0160208091040260200160405190810160405280929190818152602001828054612b0c906130ea565b8015612b595780601f10612b2e57610100808354040283529160200191612b59565b820191906000526020600020905b815481529060010190602001808311612b3c57829003601f168201915b50505091909252505050905250600061012082015260408082015190519192507fad8ed58b9efb725148dc499fbdb9567a4c40f74ab89e9af73b2676cf893f235491611ff9918791879190879061328e565b6040518060c001604052806000815260200160608152602001606081526020016060815260200160006001600160a01b03168152602001606081525090565b6040518061018001604052806000815260200160006001600160a01b0316815260200160006001600160a01b0316815260200160008152602001600081526020016000815260200160008152602001600081526020016000815260200160001515815260200160008152602001612c5f612bab565b905290565b80356001600160a01b0381168114612c7b57600080fd5b919050565b60008060008060008060008060008060006101608c8e031215612ca257600080fd5b8b359a50612cb260208d01612c64565b9950612cc060408d01612c64565b9a9d999c50999a60608101359a5060808101359960a0820135995060c0820135985060e0820135975061010082013596506101208201359550610140909101359350915050565b60008060408385031215612d1a57600080fd5b50508035926020909101359150565b600060208284031215612d3b57600080fd5b5035919050565b6000815180845260005b81811015612d6857602081850181015186830182015201612d4c565b506000602082860101526020601f19601f83011685010191505092915050565b805182526000602082015160c06020850152612da760c0850182612d42565b905060408301518482036040860152612dc08282612d42565b91505060608301518482036060860152612dda8282612d42565b91505060018060a01b03608084015116608085015260a083015184820360a0860152612e068282612d42565b95945050505050565b60006101808e835260018060a01b03808f166020850152808e166040850152508b60608401528a60808401528960a08401528860c08401528760e0840152866101008401528515156101208401528461014084015280610160840152612e7781840185612d88565b9f9e505050505050505050505050505050565b60208152600061198f6020830184612d88565b602081528151602082015260006020830151612ec460408401826001600160a01b03169052565b5060408301516001600160a01b03811660608401525060608301516080830152608083015160a083015260a083015160c083015260c083015160e083015260e0830151610100818185015280850151915050610120818185015280850151915050610140612f358185018315159052565b84015161016084810191909152840151610180808501529050612f5c6101a0840182612d88565b949350505050565b60008060408385031215612f7757600080fd5b82359150612f8760208401612c64565b90509250929050565b634e487b7160e01b600052604160045260246000fd5b600082601f830112612fb757600080fd5b813567ffffffffffffffff80821115612fd257612fd2612f90565b604051601f8301601f19908116603f01168101908282118183101715612ffa57612ffa612f90565b8160405283815286602085880101111561301357600080fd5b836020870160208301376000602085830101528094505050505092915050565b600080600080600060a0868803121561304b57600080fd5b85359450602086013567ffffffffffffffff8082111561306a57600080fd5b61307689838a01612fa6565b9550604088013591508082111561308c57600080fd5b61309889838a01612fa6565b945060608801359150808211156130ae57600080fd5b6130ba89838a01612fa6565b935060808801359150808211156130d057600080fd5b506130dd88828901612fa6565b9150509295509295909350565b600181811c908216806130fe57607f821691505b60208210810361311e57634e487b7160e01b600052602260045260246000fd5b50919050565b601f821115613170576000816000526020600020601f850160051c8101602086101561314d5750805b601f850160051c820191505b8181101561316c57828155600101613159565b5050505b505050565b815167ffffffffffffffff81111561318f5761318f612f90565b6131a38161319d84546130ea565b84613124565b602080601f8311600181146131d857600084156131c05750858301515b600019600386901b1c1916600185901b17855561316c565b600085815260208120601f198616915b82811015613207578886015182559484019460019091019084016131e8565b50858210156132255787850151600019600388901b60f8161c191681555b5050505050600190811b01905550565b634e487b7160e01b600052601160045260246000fd5b60006001820161325d5761325d613235565b5060010190565b808201808211156112eb576112eb613235565b80820281158282048414176112eb576112eb613235565b84815283602082015260018060a01b03831660408201526080606082015260006132bb6080830184612d42565b969550505050505056fea26469706673582212202d395734b9edc181a30099038e51499e6af7ce726e4693707c0e4e37e1714a1e64736f6c63430008180033","linkReferences":{}},"methodIdentifiers":{"approveRentReceived(uint256,uint256)":"9ee5872d","checkPaymentStatus(uint256)":"2dd6ad2b","contractCount()":"8736381a","contractSignatures(uint256,address)":"c56ac4b6","contracts(uint256)":"474da79a","createRentContract(uint256,address,address,uint256,uint256,uint256,uint256,uint256,uint256,uint256,uint256)":"089befe3","getContractById(uint256)":"8ba9ac6f","getPaymentsByContractIdAndPaymentId(uint256,uint256)":"615b6089","getPropertyById(uint256)":"59fe18eb","isContractSigned(uint256)":"93a43c19","listPropertyForRent(uint256,string,string,string,string)":"d0153bb9","payRent(uint256,uint256)":"fc2bf8f0","payments(uint256,uint256)":"2655bd73","propertiesCount()":"11447e87","signContract(uint256)":"9537e8d1"},"id":23}