{"abi":[{"type":"function","name":"approveRentReceived","inputs":[{"name":"_contractId","type":"uint256","internalType":"uint256"},{"name":"_paymentId","type":"uint256","internalType":"uint256"}],"outputs":[],"stateMutability":"nonpayable"},{"type":"function","name":"checkPaymentStatus","inputs":[{"name":"contractId","type":"uint256","internalType":"uint256"}],"outputs":[],"stateMutability":"nonpayable"},{"type":"function","name":"contractCount","inputs":[],"outputs":[{"name":"","type":"uint256","internalType":"uint256"}],"stateMutability":"view"},{"type":"function","name":"contractSignatures","inputs":[{"name":"","type":"uint256","internalType":"uint256"},{"name":"","type":"address","internalType":"address"}],"outputs":[{"name":"","type":"bool","internalType":"bool"}],"stateMutability":"view"},{"type":"function","name":"contracts","inputs":[{"name":"","type":"uint256","internalType":"uint256"}],"outputs":[{"name":"id","type":"uint256","internalType":"uint256"},{"name":"lessor","type":"address","internalType":"address"},{"name":"lease","type":"address","internalType":"address"},{"name":"monthlyRent","type":"uint256","internalType":"uint256"},{"name":"deposit","type":"uint256","internalType":"uint256"},{"name":"paymentDue","type":"uint256","internalType":"uint256"},{"name":"gracePeriod","type":"uint256","internalType":"uint256"},{"name":"startDate","type":"uint256","internalType":"uint256"},{"name":"endDate","type":"uint256","internalType":"uint256"},{"name":"isActive","type":"bool","internalType":"bool"},{"name":"period","type":"uint256","internalType":"uint256"},{"name":"property","type":"tuple","internalType":"struct RentProperty.Property","components":[{"name":"id","type":"uint256","internalType":"uint256"},{"name":"propertyAddress","type":"string","internalType":"string"},{"name":"city","type":"string","internalType":"string"},{"name":"country","type":"string","internalType":"string"},{"name":"owner","type":"address","internalType":"address"},{"name":"description","type":"string","internalType":"string"}]}],"stateMutability":"view"},{"type":"function","name":"createRentContract","inputs":[{"name":"_id","type":"uint256","internalType":"uint256"},{"name":"_lessor","type":"address","internalType":"address"},{"name":"_lease","type":"address","internalType":"address"},{"name":"_monthlyRent","type":"uint256","internalType":"uint256"},{"name":"_deposit","type":"uint256","internalType":"uint256"},{"name":"_paymentDue","type":"uint256","internalType":"uint256"},{"name":"_gracePeriod","type":"uint256","internalType":"uint256"},{"name":"_startDate","type":"uint256","internalType":"uint256"},{"name":"_endDate","type":"uint256","internalType":"uint256"},{"name":"_period","type":"uint256","internalType":"uint256"},{"name":"propertyId","type":"uint256","internalType":"uint256"}],"outputs":[],"stateMutability":"nonpayable"},{"type":"function","name":"getContractById","inputs":[{"name":"contractId","type":"uint256","internalType":"uint256"}],"outputs":[{"name":"","type":"tuple","internalType":"struct RentProperty.Contract","components":[{"name":"id","type":"uint256","internalType":"uint256"},{"name":"lessor","type":"address","internalType":"address"},{"name":"lease","type":"address","internalType":"address"},{"name":"monthlyRent","type":"uint256","internalType":"uint256"},{"name":"deposit","type":"uint256","internalType":"uint256"},{"name":"paymentDue","type":"uint256","internalType":"uint256"},{"name":"gracePeriod","type":"uint256","internalType":"uint256"},{"name":"startDate","type":"uint256","internalType":"uint256"},{"name":"endDate","type":"uint256","internalType":"uint256"},{"name":"isActive","type":"bool","internalType":"bool"},{"name":"period","type":"uint256","internalType":"uint256"},{"name":"property","type":"tuple","internalType":"struct RentProperty.Property","components":[{"name":"id","type":"uint256","internalType":"uint256"},{"name":"propertyAddress","type":"string","internalType":"string"},{"name":"city","type":"string","internalType":"string"},{"name":"country","type":"string","internalType":"string"},{"name":"owner","type":"address","internalType":"address"},{"name":"description","type":"string","internalType":"string"}]}]}],"stateMutability":"view"},{"type":"function","name":"getPaymentsByContractIdAndPaymentId","inputs":[{"name":"contractId","type":"uint256","internalType":"uint256"},{"name":"paymentId","type":"uint256","internalType":"uint256"}],"outputs":[{"name":"","type":"tuple","internalType":"struct RentProperty.Payment","components":[{"name":"id","type":"uint256","internalType":"uint256"},{"name":"dueDate","type":"uint256","internalType":"uint256"},{"name":"paid","type":"bool","internalType":"bool"},{"name":"approved","type":"bool","internalType":"bool"}]}],"stateMutability":"view"},{"type":"function","name":"getPropertyById","inputs":[{"name":"propertyId","type":"uint256","internalType":"uint256"}],"outputs":[{"name":"","type":"tuple","internalType":"struct RentProperty.Property","components":[{"name":"id","type":"uint256","internalType":"uint256"},{"name":"propertyAddress","type":"string","internalType":"string"},{"name":"city","type":"string","internalType":"string"},{"name":"country","type":"string","internalType":"string"},{"name":"owner","type":"address","internalType":"address"},{"name":"description","type":"string","internalType":"string"}]}],"stateMutability":"view"},{"type":"function","name":"isContractSigned","inputs":[{"name":"contractId","type":"uint256","internalType":"uint256"}],"outputs":[{"name":"","type":"bool","internalType":"bool"}],"stateMutability":"view"},{"type":"function","name":"listPropertyForRent","inputs":[{"name":"_id","type":"uint256","internalType":"uint256"},{"name":"_propertyAddress","type":"string","internalType":"string"},{"name":"_city","type":"string","internalType":"string"},{"name":"_country","type":"string","internalType":"string"},{"name":"_description","type":"string","internalType":"string"}],"outputs":[],"stateMutability":"nonpayable"},{"type":"function","name":"payRent","inputs":[{"name":"contractId","type":"uint256","internalType":"uint256"},{"name":"paymentId","type":"uint256","internalType":"uint256"}],"outputs":[],"stateMutability":"payable"},{"type":"function","name":"propertiesCount","inputs":[],"outputs":[{"name":"","type":"uint256","internalType":"uint256"}],"stateMutability":"view"},{"type":"function","name":"signContract","inputs":[{"name":"contractId","type":"uint256","internalType":"uint256"}],"outputs":[],"stateMutability":"nonpayable"},{"type":"event","name":"ContractActivated","inputs":[{"name":"contractId","type":"uint256","indexed":false,"internalType":"uint256"}],"anonymous":false},{"type":"event","name":"ContractCreated","inputs":[{"name":"contractId","type":"uint256","indexed":false,"internalType":"uint256"}],"anonymous":false},{"type":"event","name":"ContractSigned","inputs":[{"name":"contractId","type":"uint256","indexed":false,"internalType":"uint256"},{"name":"signer","type":"address","indexed":false,"internalType":"address"}],"anonymous":false},{"type":"event","name":"ContractTerminated","inputs":[{"name":"contractId","type":"uint256","indexed":false,"internalType":"uint256"},{"name":"paymentId","type":"uint256","indexed":false,"internalType":"uint256"},{"name":"lease","type":"address","indexed":false,"internalType":"address"},{"name":"reason","type":"string","indexed":false,"internalType":"string"}],"anonymous":false},{"type":"event","name":"PaymentsForContractCreated","inputs":[{"name":"contractId","type":"uint256","indexed":false,"internalType":"uint256"}],"anonymous":false},{"type":"event","name":"PropertyListedForRent","inputs":[{"name":"propertyId","type":"uint256","indexed":false,"internalType":"uint256"},{"name":"owner","type":"address","indexed":false,"internalType":"address"}],"anonymous":false},{"type":"event","name":"RentApproved","inputs":[{"name":"contractId","type":"uint256","indexed":false,"internalType":"uint256"},{"name":"paymentId","type":"uint256","indexed":false,"internalType":"uint256"}],"anonymous":false},{"type":"event","name":"RentPaid","inputs":[{"name":"lease","type":"address","indexed":false,"internalType":"address"},{"name":"contractId","type":"uint256","indexed":false,"internalType":"uint256"},{"name":"paymentId","type":"uint256","indexed":false,"internalType":"uint256"},{"name":"timestamp","type":"uint256","indexed":false,"internalType":"uint256"}],"anonymous":false}],"bytecode":{"object":"0x60806040526000600155600060055534801561001a57600080fd5b506131778061002a6000396000f3fe6080604052600436106100dd5760003560e01c80638ba9ac6f1161007f5780639ee5872d116100595780639ee5872d1461029c578063c56ac4b6146102bc578063d0153bb9146102f7578063fc2bf8f01461031757600080fd5b80638ba9ac6f1461021f57806393a43c191461024c5780639537e8d11461027c57600080fd5b8063474da79a116100bb578063474da79a1461014d57806359fe18eb14610185578063615b6089146101b25780638736381a1461020957600080fd5b8063089befe3146100e257806311447e87146101045780632dd6ad2b1461012d575b600080fd5b3480156100ee57600080fd5b506101026100fd366004612afc565b61032a565b005b34801561011057600080fd5b5061011a60015481565b6040519081526020015b60405180910390f35b34801561013957600080fd5b50610102610148366004612b83565b6107d7565b34801561015957600080fd5b5061016d610168366004612b83565b610c75565b6040516101249c9b9a99989796959493929190612c69565b34801561019157600080fd5b506101a56101a0366004612b83565b610f5b565b6040516101249190612ce4565b3480156101be57600080fd5b506101d26101cd366004612cf7565b6111f4565b6040516101249190815181526020808301519082015260408083015115159082015260609182015115159181019190915260800190565b34801561021557600080fd5b5061011a60055481565b34801561022b57600080fd5b5061023f61023a366004612b83565b61126b565b6040516101249190612d19565b34801561025857600080fd5b5061026c610267366004612b83565b611591565b6040519015158152602001610124565b34801561028857600080fd5b50610102610297366004612b83565b611910565b3480156102a857600080fd5b506101026102b7366004612cf7565b611b2a565b3480156102c857600080fd5b5061026c6102d7366004612de0565b600260209081526000928352604080842090915290825290205460ff1681565b34801561030357600080fd5b50610102610312366004612eaf565b611f81565b610102610325366004612cf7565b612098565b6000806000838152602001908152602001600020905060006040518061018001604052808e81526020018d6001600160a01b031681526020018c6001600160a01b031681526020018b81526020018a8152602001898152602001888152602001878152602001868152602001600015158152602001858152602001836040518060c0016040529081600082015481526020016001820180546103cb90612f66565b80601f01602080910402602001604051908101604052809291908181526020018280546103f790612f66565b80156104445780601f1061041957610100808354040283529160200191610444565b820191906000526020600020905b81548152906001019060200180831161042757829003601f168201915b5050505050815260200160028201805461045d90612f66565b80601f016020809104026020016040519081016040528092919081815260200182805461048990612f66565b80156104d65780601f106104ab576101008083540402835291602001916104d6565b820191906000526020600020905b8154815290600101906020018083116104b957829003601f168201915b505050505081526020016003820180546104ef90612f66565b80601f016020809104026020016040519081016040528092919081815260200182805461051b90612f66565b80156105685780601f1061053d57610100808354040283529160200191610568565b820191906000526020600020905b81548152906001019060200180831161054b57829003601f168201915b505050918352505060048201546001600160a01b0316602082015260058201805460409092019161059890612f66565b80601f01602080910402602001604051908101604052809291908181526020018280546105c490612f66565b80156106115780601f106105e657610100808354040283529160200191610611565b820191906000526020600020905b8154815290600101906020018083116105f457829003601f168201915b5050509190925250505090526005805460009081526003602081815260409283902085518155858201516001820180546001600160a01b03199081166001600160a01b0393841617909155948701516002830180549096169116179093556060850151918301919091556080840151600483015560a08401519282019290925560c0830151600682015560e08301516007820155610100830151600882015561012083015160098201805460ff1916911515919091179055610140830151600a8201556101608301518051600b830190815592810151939450849391929091600c8401906106ff9082612ff1565b50604082015160028201906107149082612ff1565b50606082015160038201906107299082612ff1565b5060808201516004820180546001600160a01b0319166001600160a01b0390921691909117905560a082015160058201906107649082612ff1565b505083516040519081527f9e3c7e008a15a3c864482ee94fd7315bcc9d0c04f3a9041ab922f816acffbe069350602001915061079d9050565b60405180910390a16107b384878a6005546125b4565b600580549060006107c3836130c7565b919050555050505050505050505050505050565b60008181526003602081815260408084208151610180810183528154815260018201546001600160a01b03908116828601526002830154168184015293810154606085015260048101546080850152600581015460a0850152600681015460c080860191909152600782015460e08601526008820154610100860152600982015460ff161515610120860152600a8201546101408601528251908101909252600b810180548352600c82018054929461016087019493908401919061089b90612f66565b80601f01602080910402602001604051908101604052809291908181526020018280546108c790612f66565b80156109145780601f106108e957610100808354040283529160200191610914565b820191906000526020600020905b8154815290600101906020018083116108f757829003601f168201915b5050505050815260200160028201805461092d90612f66565b80601f016020809104026020016040519081016040528092919081815260200182805461095990612f66565b80156109a65780601f1061097b576101008083540402835291602001916109a6565b820191906000526020600020905b81548152906001019060200180831161098957829003601f168201915b505050505081526020016003820180546109bf90612f66565b80601f01602080910402602001604051908101604052809291908181526020018280546109eb90612f66565b8015610a385780601f10610a0d57610100808354040283529160200191610a38565b820191906000526020600020905b815481529060010190602001808311610a1b57829003601f168201915b505050918352505060048201546001600160a01b03166020820152600582018054604090920191610a6890612f66565b80601f0160208091040260200160405190810160405280929190818152602001828054610a9490612f66565b8015610ae15780601f10610ab657610100808354040283529160200191610ae1565b820191906000526020600020905b815481529060010190602001808311610ac457829003601f168201915b50505091909252505050905250600083815260046020908152604090912090820151919250906001600160a01b0316331480610b32575081604001516001600160a01b0316336001600160a01b0316145b610b795760405162461bcd60e51b8152602060048201526013602482015272556e617574686f72697a65642061636365737360681b60448201526064015b60405180910390fd5b816101200151610bc55760405162461bcd60e51b815260206004820152601760248201527621b7b73a3930b1ba1034b9903737ba1030b1ba34bb329760491b6044820152606401610b70565b60005b826101400151811015610c6f5760008181526020839052604090206002015460ff16158015610c16575060c0830151600082815260208490526040902060010154610c1391906130e0565b42115b15610c6757610c6784836000848152602001908152602001600020600001546040518060400160405280601481526020017352656e7420746f2070616964206f6e2074696d6560601b8152506126cb565b600101610bc8565b50505050565b60036020818152600092835260409283902080546001820154600283015494830154600484015460058501546006860154600787015460088801546009890154600a8a01548d5160c08101909e52600b8b0180548f52600c8c0180549b9f6001600160a01b039b8c169f909b169d999c989b979a96999598949760ff90941696929592939192840191610d0790612f66565b80601f0160208091040260200160405190810160405280929190818152602001828054610d3390612f66565b8015610d805780601f10610d5557610100808354040283529160200191610d80565b820191906000526020600020905b815481529060010190602001808311610d6357829003601f168201915b50505050508152602001600282018054610d9990612f66565b80601f0160208091040260200160405190810160405280929190818152602001828054610dc590612f66565b8015610e125780601f10610de757610100808354040283529160200191610e12565b820191906000526020600020905b815481529060010190602001808311610df557829003601f168201915b50505050508152602001600382018054610e2b90612f66565b80601f0160208091040260200160405190810160405280929190818152602001828054610e5790612f66565b8015610ea45780601f10610e7957610100808354040283529160200191610ea4565b820191906000526020600020905b815481529060010190602001808311610e8757829003601f168201915b505050918352505060048201546001600160a01b03166020820152600582018054604090920191610ed490612f66565b80601f0160208091040260200160405190810160405280929190818152602001828054610f0090612f66565b8015610f4d5780601f10610f2257610100808354040283529160200191610f4d565b820191906000526020600020905b815481529060010190602001808311610f3057829003601f168201915b50505050508152505090508c565b610f63612a27565b60008060008481526020019081526020016000206040518060c001604052908160008201548152602001600182018054610f9c90612f66565b80601f0160208091040260200160405190810160405280929190818152602001828054610fc890612f66565b80156110155780601f10610fea57610100808354040283529160200191611015565b820191906000526020600020905b815481529060010190602001808311610ff857829003601f168201915b5050505050815260200160028201805461102e90612f66565b80601f016020809104026020016040519081016040528092919081815260200182805461105a90612f66565b80156110a75780601f1061107c576101008083540402835291602001916110a7565b820191906000526020600020905b81548152906001019060200180831161108a57829003601f168201915b505050505081526020016003820180546110c090612f66565b80601f01602080910402602001604051908101604052809291908181526020018280546110ec90612f66565b80156111395780601f1061110e57610100808354040283529160200191611139565b820191906000526020600020905b81548152906001019060200180831161111c57829003601f168201915b505050918352505060048201546001600160a01b0316602082015260058201805460409092019161116990612f66565b80601f016020809104026020016040519081016040528092919081815260200182805461119590612f66565b80156111e25780601f106111b7576101008083540402835291602001916111e2565b820191906000526020600020905b8154815290600101906020018083116111c557829003601f168201915b50505091909252509195945050505050565b60408051608080820183526000808352602080840182905283850182905260609384018290528682526004815284822086835281529084902084519283018552805483526001810154918301919091526002015460ff80821615159483019490945261010090049092161515908201525b92915050565b611273612a66565b60008281526003602081815260408084208151610180810183528154815260018201546001600160a01b03908116828601526002830154168184015293810154606085015260048101546080850152600581015460a0850152600681015460c080860191909152600782015460e08601526008820154610100860152600982015460ff161515610120860152600a8201546101408601528251908101909252600b810180548352600c82018054929461016087019493908401919061133790612f66565b80601f016020809104026020016040519081016040528092919081815260200182805461136390612f66565b80156113b05780601f10611385576101008083540402835291602001916113b0565b820191906000526020600020905b81548152906001019060200180831161139357829003601f168201915b505050505081526020016002820180546113c990612f66565b80601f01602080910402602001604051908101604052809291908181526020018280546113f590612f66565b80156114425780601f1061141757610100808354040283529160200191611442565b820191906000526020600020905b81548152906001019060200180831161142557829003601f168201915b5050505050815260200160038201805461145b90612f66565b80601f016020809104026020016040519081016040528092919081815260200182805461148790612f66565b80156114d45780601f106114a9576101008083540402835291602001916114d4565b820191906000526020600020905b8154815290600101906020018083116114b757829003601f168201915b505050918352505060048201546001600160a01b0316602082015260058201805460409092019161150490612f66565b80601f016020809104026020016040519081016040528092919081815260200182805461153090612f66565b801561157d5780601f106115525761010080835404028352916020019161157d565b820191906000526020600020905b81548152906001019060200180831161156057829003601f168201915b505050919092525050509052509392505050565b60008181526003602081815260408084208151610180810183528154815260018201546001600160a01b03908116828601526002830154168184015293810154606085015260048101546080850152600581015460a0850152600681015460c080860191909152600782015460e08601526008820154610100860152600982015460ff161515610120860152600a8201546101408601528251908101909252600b810180548352600c8201805487969593946101608701949093929084019161165990612f66565b80601f016020809104026020016040519081016040528092919081815260200182805461168590612f66565b80156116d25780601f106116a7576101008083540402835291602001916116d2565b820191906000526020600020905b8154815290600101906020018083116116b557829003601f168201915b505050505081526020016002820180546116eb90612f66565b80601f016020809104026020016040519081016040528092919081815260200182805461171790612f66565b80156117645780601f1061173957610100808354040283529160200191611764565b820191906000526020600020905b81548152906001019060200180831161174757829003601f168201915b5050505050815260200160038201805461177d90612f66565b80601f01602080910402602001604051908101604052809291908181526020018280546117a990612f66565b80156117f65780601f106117cb576101008083540402835291602001916117f6565b820191906000526020600020905b8154815290600101906020018083116117d957829003601f168201915b505050918352505060048201546001600160a01b0316602082015260058201805460409092019161182690612f66565b80601f016020809104026020016040519081016040528092919081815260200182805461185290612f66565b801561189f5780601f106118745761010080835404028352916020019161189f565b820191906000526020600020905b81548152906001019060200180831161188257829003601f168201915b505050919092525050509052506000848152600260209081526040808320828501516001600160a01b0316845290915290205490915060ff16801561190957506000838152600260209081526040808320848201516001600160a01b0316845290915290205460ff165b9392505050565b600081815260036020526040902060018101546001600160a01b0316331480611945575060028101546001600160a01b031633145b6119a25760405162461bcd60e51b815260206004820152602860248201527f5369676e65722068617320746f20626520656974686572206c6573736f72206f60448201526739103632b0b9b29760c11b6064820152608401610b70565b600082815260026020908152604080832033845290915290205460ff1615611a1e5760405162461bcd60e51b815260206004820152602960248201527f436f6e747261637420697320616c7265616479207369676e6564206279207468604482015268329039b4b3b732b29760b91b6064820152608401610b70565b60008281526002602090815260408083203380855290835292819020805460ff191660011790558051858152918201929092527fcd3b1fcca80f9caae633c3e13546995d3810e561957af92839f070c46571942c910160405180910390a1600082815260026020908152604080832060018501546001600160a01b0316845290915290205460ff168015611ad757506000828152600260208181526040808420928501546001600160a01b0316845291905290205460ff165b15611b265760098101805460ff191660011790556040517f73edfb7736e2a79d626edb978d46bcd467644e8a44cbe706358022b6a6d361ec90611b1d9084815260200190565b60405180910390a15b5050565b60008281526003602081815260408084208151610180810183528154815260018201546001600160a01b03908116828601526002830154168184015293810154606085015260048101546080850152600581015460a0850152600681015460c080860191909152600782015460e08601526008820154610100860152600982015460ff161515610120860152600a8201546101408601528251908101909252600b810180548352600c820180549294610160870194939084019190611bee90612f66565b80601f0160208091040260200160405190810160405280929190818152602001828054611c1a90612f66565b8015611c675780601f10611c3c57610100808354040283529160200191611c67565b820191906000526020600020905b815481529060010190602001808311611c4a57829003601f168201915b50505050508152602001600282018054611c8090612f66565b80601f0160208091040260200160405190810160405280929190818152602001828054611cac90612f66565b8015611cf95780601f10611cce57610100808354040283529160200191611cf9565b820191906000526020600020905b815481529060010190602001808311611cdc57829003601f168201915b50505050508152602001600382018054611d1290612f66565b80601f0160208091040260200160405190810160405280929190818152602001828054611d3e90612f66565b8015611d8b5780601f10611d6057610100808354040283529160200191611d8b565b820191906000526020600020905b815481529060010190602001808311611d6e57829003601f168201915b505050918352505060048201546001600160a01b03166020820152600582018054604090920191611dbb90612f66565b80601f0160208091040260200160405190810160405280929190818152602001828054611de790612f66565b8015611e345780601f10611e0957610100808354040283529160200191611e34565b820191906000526020600020905b815481529060010190602001808311611e1757829003601f168201915b50505050508152505081525050905080602001516001600160a01b0316336001600160a01b031614611ebd5760405162461bcd60e51b815260206004820152602c60248201527f4f6e6c79206c6573736f722063616e20617070726f76652072656e742062656960448201526b3733903932b1b2b4bb32b21760a11b6064820152608401610b70565b600083815260046020908152604080832085845290915290206002810154610100900460ff1615611f305760405162461bcd60e51b815260206004820152601c60248201527f5061796d656e7420697320616c726561647920617070726f7665642e000000006044820152606401610b70565b60028101805461ff00191661010017905560408051858152602081018590527f5110597352822d9823429fb693bb377b5b4f716bd69f2419b80655e321be91c191015b60405180910390a150505050565b6040805160c08101825286815260208082018781528284018790526060830186905233608084015260a0830185905260018054600090815292839052939091208251815590519192839290820190611fd99082612ff1565b5060408201516002820190611fee9082612ff1565b50606082015160038201906120039082612ff1565b5060808201516004820180546001600160a01b0319166001600160a01b0390921691909117905560a0820151600582019061203e9082612ff1565b50506001805491506000612051836130c7565b90915550508051604080519182523360208301527f6d1df3f8f7b05059a3dc98f63e0b87dcc88128522891dbff1182e72016faf96b910160405180910390a1505050505050565b60008281526003602081815260408084208151610180810183528154815260018201546001600160a01b03908116828601526002830154168184015293810154606085015260048101546080850152600581015460a0850152600681015460c080860191909152600782015460e08601526008820154610100860152600982015460ff161515610120860152600a8201546101408601528251908101909252600b810180548352600c82018054929461016087019493908401919061215c90612f66565b80601f016020809104026020016040519081016040528092919081815260200182805461218890612f66565b80156121d55780601f106121aa576101008083540402835291602001916121d5565b820191906000526020600020905b8154815290600101906020018083116121b857829003601f168201915b505050505081526020016002820180546121ee90612f66565b80601f016020809104026020016040519081016040528092919081815260200182805461221a90612f66565b80156122675780601f1061223c57610100808354040283529160200191612267565b820191906000526020600020905b81548152906001019060200180831161224a57829003601f168201915b5050505050815260200160038201805461228090612f66565b80601f01602080910402602001604051908101604052809291908181526020018280546122ac90612f66565b80156122f95780601f106122ce576101008083540402835291602001916122f9565b820191906000526020600020905b8154815290600101906020018083116122dc57829003601f168201915b505050918352505060048201546001600160a01b0316602082015260058201805460409092019161232990612f66565b80601f016020809104026020016040519081016040528092919081815260200182805461235590612f66565b80156123a25780601f10612377576101008083540402835291602001916123a2565b820191906000526020600020905b81548152906001019060200180831161238557829003601f168201915b50505050508152505081525050905080604001516001600160a01b0316336001600160a01b0316146124165760405162461bcd60e51b815260206004820152601860248201527f4f6e6c79206c656173652063616e207061792072656e742e00000000000000006044820152606401610b70565b8061012001516124625760405162461bcd60e51b815260206004820152601760248201527621b7b73a3930b1ba1034b9903737ba1030b1ba34bb329760491b6044820152606401610b70565b806060015134146124ad5760405162461bcd60e51b815260206004820152601560248201527424b731b7b93932b1ba103932b73a103b30b63ab29760591b6044820152606401610b70565b600081602001516001600160a01b03163460405160006040518083038185875af1925050503d80600081146124fe576040519150601f19603f3d011682016040523d82523d6000602084013e612503565b606091505b505090508061254b5760405162461bcd60e51b81526020600482015260146024820152732330b4b632b2103a379039b2b732103932b73a1760611b6044820152606401610b70565b6000848152600460209081526040808320868452825291829020600201805460ff1916600117905581513381529081018690529081018490524260608201527f2d2423890bc33b8290b6bf4c590927cc8a367ef6c70744a602984e45a4bf117790608001611f73565b60005b8481101561269a5760006125cc8260016130e0565b6125d690856130f3565b90506000612632836125e884896130e0565b604080516080810182526000808252602082018190529181018290526060810191909152506040805160808101825292835260208301919091526000908201819052606082015290565b60008581526004602090815260408083208784528252918290208351815590830151600180830191909155918301516002909101805460609094015115156101000261ff00199215159290921661ffff19909416939093171790915590920191506125b79050565b506040518181527fb151c83bca2c7216c7fb7d05eda52844b4f24a1be7aa549c44f5c46e94aa456390602001611f73565b60008381526003602081815260408084208151610180810183528154815260018201546001600160a01b03908116828601526002830154168184015293810154606085015260048101546080850152600581015460a0850152600681015460c080860191909152600782015460e08601526008820154610100860152600982015460ff161515610120860152600a8201546101408601528251908101909252600b810180548352600c82018054929461016087019493908401919061278f90612f66565b80601f01602080910402602001604051908101604052809291908181526020018280546127bb90612f66565b80156128085780601f106127dd57610100808354040283529160200191612808565b820191906000526020600020905b8154815290600101906020018083116127eb57829003601f168201915b5050505050815260200160028201805461282190612f66565b80601f016020809104026020016040519081016040528092919081815260200182805461284d90612f66565b801561289a5780601f1061286f5761010080835404028352916020019161289a565b820191906000526020600020905b81548152906001019060200180831161287d57829003601f168201915b505050505081526020016003820180546128b390612f66565b80601f01602080910402602001604051908101604052809291908181526020018280546128df90612f66565b801561292c5780601f106129015761010080835404028352916020019161292c565b820191906000526020600020905b81548152906001019060200180831161290f57829003601f168201915b505050918352505060048201546001600160a01b0316602082015260058201805460409092019161295c90612f66565b80601f016020809104026020016040519081016040528092919081815260200182805461298890612f66565b80156129d55780601f106129aa576101008083540402835291602001916129d5565b820191906000526020600020905b8154815290600101906020018083116129b857829003601f168201915b50505091909252505050905250600061012082015260408082015190519192507fad8ed58b9efb725148dc499fbdb9567a4c40f74ab89e9af73b2676cf893f235491611f73918791879190879061310a565b6040518060c001604052806000815260200160608152602001606081526020016060815260200160006001600160a01b03168152602001606081525090565b6040518061018001604052806000815260200160006001600160a01b0316815260200160006001600160a01b0316815260200160008152602001600081526020016000815260200160008152602001600081526020016000815260200160001515815260200160008152602001612adb612a27565b905290565b80356001600160a01b0381168114612af757600080fd5b919050565b60008060008060008060008060008060006101608c8e031215612b1e57600080fd5b8b359a50612b2e60208d01612ae0565b9950612b3c60408d01612ae0565b9a9d999c50999a60608101359a5060808101359960a0820135995060c0820135985060e0820135975061010082013596506101208201359550610140909101359350915050565b600060208284031215612b9557600080fd5b5035919050565b6000815180845260005b81811015612bc257602081850181015186830182015201612ba6565b506000602082860101526020601f19601f83011685010191505092915050565b805182526000602082015160c06020850152612c0160c0850182612b9c565b905060408301518482036040860152612c1a8282612b9c565b91505060608301518482036060860152612c348282612b9c565b91505060018060a01b03608084015116608085015260a083015184820360a0860152612c608282612b9c565b95945050505050565b60006101808e835260018060a01b03808f166020850152808e166040850152508b60608401528a60808401528960a08401528860c08401528760e0840152866101008401528515156101208401528461014084015280610160840152612cd181840185612be2565b9f9e505050505050505050505050505050565b6020815260006119096020830184612be2565b60008060408385031215612d0a57600080fd5b50508035926020909101359150565b602081528151602082015260006020830151612d4060408401826001600160a01b03169052565b5060408301516001600160a01b03811660608401525060608301516080830152608083015160a083015260a083015160c083015260c083015160e083015260e0830151610100818185015280850151915050610120818185015280850151915050610140612db18185018315159052565b84015161016084810191909152840151610180808501529050612dd86101a0840182612be2565b949350505050565b60008060408385031215612df357600080fd5b82359150612e0360208401612ae0565b90509250929050565b634e487b7160e01b600052604160045260246000fd5b600082601f830112612e3357600080fd5b813567ffffffffffffffff80821115612e4e57612e4e612e0c565b604051601f8301601f19908116603f01168101908282118183101715612e7657612e76612e0c565b81604052838152866020858801011115612e8f57600080fd5b836020870160208301376000602085830101528094505050505092915050565b600080600080600060a08688031215612ec757600080fd5b85359450602086013567ffffffffffffffff80821115612ee657600080fd5b612ef289838a01612e22565b95506040880135915080821115612f0857600080fd5b612f1489838a01612e22565b94506060880135915080821115612f2a57600080fd5b612f3689838a01612e22565b93506080880135915080821115612f4c57600080fd5b50612f5988828901612e22565b9150509295509295909350565b600181811c90821680612f7a57607f821691505b602082108103612f9a57634e487b7160e01b600052602260045260246000fd5b50919050565b601f821115612fec576000816000526020600020601f850160051c81016020861015612fc95750805b601f850160051c820191505b81811015612fe857828155600101612fd5565b5050505b505050565b815167ffffffffffffffff81111561300b5761300b612e0c565b61301f816130198454612f66565b84612fa0565b602080601f831160018114613054576000841561303c5750858301515b600019600386901b1c1916600185901b178555612fe8565b600085815260208120601f198616915b8281101561308357888601518255948401946001909101908401613064565b50858210156130a15787850151600019600388901b60f8161c191681555b5050505050600190811b01905550565b634e487b7160e01b600052601160045260246000fd5b6000600182016130d9576130d96130b1565b5060010190565b80820180821115611265576112656130b1565b8082028115828204841417611265576112656130b1565b84815283602082015260018060a01b03831660408201526080606082015260006131376080830184612b9c565b969550505050505056fea2646970667358221220754b4294607f975c219824b67348e079ef02ed9573b18ee3562e1914f54df0dd64736f6c63430008180033","linkReferences":{}},"methodIdentifiers":{"approveRentReceived(uint256,uint256)":"9ee5872d","checkPaymentStatus(uint256)":"2dd6ad2b","contractCount()":"8736381a","contractSignatures(uint256,address)":"c56ac4b6","contracts(uint256)":"474da79a","createRentContract(uint256,address,address,uint256,uint256,uint256,uint256,uint256,uint256,uint256,uint256)":"089befe3","getContractById(uint256)":"8ba9ac6f","getPaymentsByContractIdAndPaymentId(uint256,uint256)":"615b6089","getPropertyById(uint256)":"59fe18eb","isContractSigned(uint256)":"93a43c19","listPropertyForRent(uint256,string,string,string,string)":"d0153bb9","payRent(uint256,uint256)":"fc2bf8f0","propertiesCount()":"11447e87","signContract(uint256)":"9537e8d1"},"id":23}