{"abi":[{"type":"function","name":"approveRentReceived","inputs":[{"name":"_contractId","type":"uint256","internalType":"uint256"},{"name":"_paymentId","type":"uint256","internalType":"uint256"}],"outputs":[],"stateMutability":"nonpayable"},{"type":"function","name":"checkPaymentStatus","inputs":[{"name":"contractId","type":"uint256","internalType":"uint256"}],"outputs":[],"stateMutability":"nonpayable"},{"type":"function","name":"contractCount","inputs":[],"outputs":[{"name":"","type":"uint256","internalType":"uint256"}],"stateMutability":"view"},{"type":"function","name":"contractSignatures","inputs":[{"name":"","type":"uint256","internalType":"uint256"},{"name":"","type":"address","internalType":"address"}],"outputs":[{"name":"","type":"bool","internalType":"bool"}],"stateMutability":"view"},{"type":"function","name":"contracts","inputs":[{"name":"","type":"uint256","internalType":"uint256"}],"outputs":[{"name":"id","type":"uint256","internalType":"uint256"},{"name":"lessor","type":"address","internalType":"address"},{"name":"lease","type":"address","internalType":"address"},{"name":"monthlyRent","type":"uint256","internalType":"uint256"},{"name":"deposit","type":"uint256","internalType":"uint256"},{"name":"paymentDue","type":"uint256","internalType":"uint256"},{"name":"gracePeriod","type":"uint256","internalType":"uint256"},{"name":"startDate","type":"uint256","internalType":"uint256"},{"name":"endDate","type":"uint256","internalType":"uint256"},{"name":"isActive","type":"bool","internalType":"bool"},{"name":"period","type":"uint256","internalType":"uint256"},{"name":"property","type":"tuple","internalType":"struct RentProperty.Property","components":[{"name":"id","type":"uint256","internalType":"uint256"},{"name":"propertyAddress","type":"string","internalType":"string"},{"name":"city","type":"string","internalType":"string"},{"name":"country","type":"string","internalType":"string"},{"name":"owner","type":"address","internalType":"address"},{"name":"description","type":"string","internalType":"string"}]}],"stateMutability":"view"},{"type":"function","name":"createRentContract","inputs":[{"name":"_id","type":"uint256","internalType":"uint256"},{"name":"_lessor","type":"address","internalType":"address"},{"name":"_lease","type":"address","internalType":"address"},{"name":"_monthlyRent","type":"uint256","internalType":"uint256"},{"name":"_deposit","type":"uint256","internalType":"uint256"},{"name":"_paymentDue","type":"uint256","internalType":"uint256"},{"name":"_gracePeriod","type":"uint256","internalType":"uint256"},{"name":"_startDate","type":"uint256","internalType":"uint256"},{"name":"_endDate","type":"uint256","internalType":"uint256"},{"name":"_period","type":"uint256","internalType":"uint256"},{"name":"propertyId","type":"uint256","internalType":"uint256"}],"outputs":[],"stateMutability":"nonpayable"},{"type":"function","name":"getContractById","inputs":[{"name":"contractId","type":"uint256","internalType":"uint256"}],"outputs":[{"name":"","type":"tuple","internalType":"struct RentProperty.Contract","components":[{"name":"id","type":"uint256","internalType":"uint256"},{"name":"lessor","type":"address","internalType":"address"},{"name":"lease","type":"address","internalType":"address"},{"name":"monthlyRent","type":"uint256","internalType":"uint256"},{"name":"deposit","type":"uint256","internalType":"uint256"},{"name":"paymentDue","type":"uint256","internalType":"uint256"},{"name":"gracePeriod","type":"uint256","internalType":"uint256"},{"name":"startDate","type":"uint256","internalType":"uint256"},{"name":"endDate","type":"uint256","internalType":"uint256"},{"name":"isActive","type":"bool","internalType":"bool"},{"name":"period","type":"uint256","internalType":"uint256"},{"name":"property","type":"tuple","internalType":"struct RentProperty.Property","components":[{"name":"id","type":"uint256","internalType":"uint256"},{"name":"propertyAddress","type":"string","internalType":"string"},{"name":"city","type":"string","internalType":"string"},{"name":"country","type":"string","internalType":"string"},{"name":"owner","type":"address","internalType":"address"},{"name":"description","type":"string","internalType":"string"}]}]}],"stateMutability":"view"},{"type":"function","name":"getPaymentsByContractIdAndPaymentId","inputs":[{"name":"contractId","type":"uint256","internalType":"uint256"},{"name":"paymentId","type":"uint256","internalType":"uint256"}],"outputs":[{"name":"","type":"tuple","internalType":"struct RentProperty.Payment","components":[{"name":"id","type":"uint256","internalType":"uint256"},{"name":"dueDate","type":"uint256","internalType":"uint256"},{"name":"paid","type":"bool","internalType":"bool"},{"name":"approved","type":"bool","internalType":"bool"}]}],"stateMutability":"view"},{"type":"function","name":"getPropertyById","inputs":[{"name":"propertyId","type":"uint256","internalType":"uint256"}],"outputs":[{"name":"","type":"tuple","internalType":"struct RentProperty.Property","components":[{"name":"id","type":"uint256","internalType":"uint256"},{"name":"propertyAddress","type":"string","internalType":"string"},{"name":"city","type":"string","internalType":"string"},{"name":"country","type":"string","internalType":"string"},{"name":"owner","type":"address","internalType":"address"},{"name":"description","type":"string","internalType":"string"}]}],"stateMutability":"view"},{"type":"function","name":"isContractSigned","inputs":[{"name":"contractId","type":"uint256","internalType":"uint256"}],"outputs":[{"name":"","type":"bool","internalType":"bool"}],"stateMutability":"view"},{"type":"function","name":"listPropertyForRent","inputs":[{"name":"_id","type":"uint256","internalType":"uint256"},{"name":"_propertyAddress","type":"string","internalType":"string"},{"name":"_city","type":"string","internalType":"string"},{"name":"_country","type":"string","internalType":"string"},{"name":"_description","type":"string","internalType":"string"}],"outputs":[],"stateMutability":"nonpayable"},{"type":"function","name":"payRent","inputs":[{"name":"contractId","type":"uint256","internalType":"uint256"},{"name":"paymentId","type":"uint256","internalType":"uint256"}],"outputs":[],"stateMutability":"payable"},{"type":"function","name":"payments","inputs":[{"name":"","type":"uint256","internalType":"uint256"},{"name":"","type":"uint256","internalType":"uint256"}],"outputs":[{"name":"id","type":"uint256","internalType":"uint256"},{"name":"dueDate","type":"uint256","internalType":"uint256"},{"name":"paid","type":"bool","internalType":"bool"},{"name":"approved","type":"bool","internalType":"bool"}],"stateMutability":"view"},{"type":"function","name":"propertiesCount","inputs":[],"outputs":[{"name":"","type":"uint256","internalType":"uint256"}],"stateMutability":"view"},{"type":"function","name":"signContract","inputs":[{"name":"contractId","type":"uint256","internalType":"uint256"}],"outputs":[],"stateMutability":"nonpayable"},{"type":"event","name":"ContractActivated","inputs":[{"name":"contractId","type":"uint256","indexed":false,"internalType":"uint256"}],"anonymous":false},{"type":"event","name":"ContractCreated","inputs":[{"name":"contractId","type":"uint256","indexed":false,"internalType":"uint256"}],"anonymous":false},{"type":"event","name":"ContractSigned","inputs":[{"name":"contractId","type":"uint256","indexed":false,"internalType":"uint256"},{"name":"signer","type":"address","indexed":false,"internalType":"address"}],"anonymous":false},{"type":"event","name":"ContractTerminated","inputs":[{"name":"contractId","type":"uint256","indexed":false,"internalType":"uint256"},{"name":"paymentId","type":"uint256","indexed":false,"internalType":"uint256"},{"name":"lease","type":"address","indexed":false,"internalType":"address"},{"name":"reason","type":"string","indexed":false,"internalType":"string"}],"anonymous":false},{"type":"event","name":"PaymentsForContractCreated","inputs":[{"name":"contractId","type":"uint256","indexed":false,"internalType":"uint256"}],"anonymous":false},{"type":"event","name":"PropertyListedForRent","inputs":[{"name":"propertyId","type":"uint256","indexed":false,"internalType":"uint256"},{"name":"owner","type":"address","indexed":false,"internalType":"address"}],"anonymous":false},{"type":"event","name":"RentApproved","inputs":[{"name":"contractId","type":"uint256","indexed":false,"internalType":"uint256"},{"name":"paymentId","type":"uint256","indexed":false,"internalType":"uint256"}],"anonymous":false},{"type":"event","name":"RentPaid","inputs":[{"name":"lease","type":"address","indexed":false,"internalType":"address"},{"name":"contractId","type":"uint256","indexed":false,"internalType":"uint256"},{"name":"paymentId","type":"uint256","indexed":false,"internalType":"uint256"},{"name":"timestamp","type":"uint256","indexed":false,"internalType":"uint256"}],"anonymous":false}],"bytecode":{"object":"0x60806040526000600155600060055534801561001a57600080fd5b506133598061002a6000396000f3fe6080604052600436106100e85760003560e01c80638736381a1161008a5780639ee5872d116100595780639ee5872d14610322578063c56ac4b614610342578063d0153bb91461037d578063fc2bf8f01461039d57600080fd5b80638736381a1461028f5780638ba9ac6f146102a557806393a43c19146102d25780639537e8d11461030257600080fd5b80632dd6ad2b116100c65780632dd6ad2b146101b3578063474da79a146101d357806359fe18eb1461020b578063615b60891461023857600080fd5b8063089befe3146100ed57806311447e871461010f5780632655bd7314610138575b600080fd5b3480156100f957600080fd5b5061010d610108366004612cde565b6103b0565b005b34801561011b57600080fd5b5061012560015481565b6040519081526020015b60405180910390f35b34801561014457600080fd5b5061018b610153366004612d65565b600460209081526000928352604080842090915290825290208054600182015460029092015490919060ff8082169161010090041684565b604080519485526020850193909352901515918301919091521515606082015260800161012f565b3480156101bf57600080fd5b5061010d6101ce366004612d87565b6108c0565b3480156101df57600080fd5b506101f36101ee366004612d87565b610d59565b60405161012f9c9b9a99989796959493929190612e6d565b34801561021757600080fd5b5061022b610226366004612d87565b61103f565b60405161012f9190612ee8565b34801561024457600080fd5b50610258610253366004612d65565b6112d8565b60405161012f9190815181526020808301519082015260408083015115159082015260609182015115159181019190915260800190565b34801561029b57600080fd5b5061012560055481565b3480156102b157600080fd5b506102c56102c0366004612d87565b61134f565b60405161012f9190612efb565b3480156102de57600080fd5b506102f26102ed366004612d87565b611675565b604051901515815260200161012f565b34801561030e57600080fd5b5061010d61031d366004612d87565b6119f4565b34801561032e57600080fd5b5061010d61033d366004612d65565b611c0e565b34801561034e57600080fd5b506102f261035d366004612fc2565b600260209081526000928352604080842090915290825290205460ff1681565b34801561038957600080fd5b5061010d610398366004613091565b612065565b61010d6103ab366004612d65565b61217c565b600081815260208190526040902060048101546001600160a01b03166104295760405162461bcd60e51b815260206004820152602360248201527f50726f70657274792077697468207468617420494420646f65736e742065786960448201526239ba1760e91b60648201526084015b60405180910390fd5b60006040518061018001604052808e81526020018d6001600160a01b031681526020018c6001600160a01b031681526020018b81526020018a8152602001898152602001888152602001878152602001868152602001600015158152602001858152602001836040518060c0016040529081600082015481526020016001820180546104b490613148565b80601f01602080910402602001604051908101604052809291908181526020018280546104e090613148565b801561052d5780601f106105025761010080835404028352916020019161052d565b820191906000526020600020905b81548152906001019060200180831161051057829003601f168201915b5050505050815260200160028201805461054690613148565b80601f016020809104026020016040519081016040528092919081815260200182805461057290613148565b80156105bf5780601f10610594576101008083540402835291602001916105bf565b820191906000526020600020905b8154815290600101906020018083116105a257829003601f168201915b505050505081526020016003820180546105d890613148565b80601f016020809104026020016040519081016040528092919081815260200182805461060490613148565b80156106515780601f1061062657610100808354040283529160200191610651565b820191906000526020600020905b81548152906001019060200180831161063457829003601f168201915b505050918352505060048201546001600160a01b0316602082015260058201805460409092019161068190613148565b80601f01602080910402602001604051908101604052809291908181526020018280546106ad90613148565b80156106fa5780601f106106cf576101008083540402835291602001916106fa565b820191906000526020600020905b8154815290600101906020018083116106dd57829003601f168201915b5050509190925250505090526005805460009081526003602081815260409283902085518155858201516001820180546001600160a01b03199081166001600160a01b0393841617909155948701516002830180549096169116179093556060850151918301919091556080840151600483015560a08401519282019290925560c0830151600682015560e08301516007820155610100830151600882015561012083015160098201805460ff1916911515919091179055610140830151600a8201556101608301518051600b830190815592810151939450849391929091600c8401906107e890826131d3565b50604082015160028201906107fd90826131d3565b506060820151600382019061081290826131d3565b5060808201516004820180546001600160a01b0319166001600160a01b0390921691909117905560a0820151600582019061084d90826131d3565b505083516040519081527f9e3c7e008a15a3c864482ee94fd7315bcc9d0c04f3a9041ab922f816acffbe06935060200191506108869050565b60405180910390a161089c84878a600554612796565b600580549060006108ac836132a9565b919050555050505050505050505050505050565b60008181526003602081815260408084208151610180810183528154815260018201546001600160a01b03908116828601526002830154168184015293810154606085015260048101546080850152600581015460a0850152600681015460c080860191909152600782015460e08601526008820154610100860152600982015460ff161515610120860152600a8201546101408601528251908101909252600b810180548352600c82018054929461016087019493908401919061098490613148565b80601f01602080910402602001604051908101604052809291908181526020018280546109b090613148565b80156109fd5780601f106109d2576101008083540402835291602001916109fd565b820191906000526020600020905b8154815290600101906020018083116109e057829003601f168201915b50505050508152602001600282018054610a1690613148565b80601f0160208091040260200160405190810160405280929190818152602001828054610a4290613148565b8015610a8f5780601f10610a6457610100808354040283529160200191610a8f565b820191906000526020600020905b815481529060010190602001808311610a7257829003601f168201915b50505050508152602001600382018054610aa890613148565b80601f0160208091040260200160405190810160405280929190818152602001828054610ad490613148565b8015610b215780601f10610af657610100808354040283529160200191610b21565b820191906000526020600020905b815481529060010190602001808311610b0457829003601f168201915b505050918352505060048201546001600160a01b03166020820152600582018054604090920191610b5190613148565b80601f0160208091040260200160405190810160405280929190818152602001828054610b7d90613148565b8015610bca5780601f10610b9f57610100808354040283529160200191610bca565b820191906000526020600020905b815481529060010190602001808311610bad57829003601f168201915b50505091909252505050905250600083815260046020908152604090912090820151919250906001600160a01b0316331480610c1b575081604001516001600160a01b0316336001600160a01b0316145b610c5d5760405162461bcd60e51b8152602060048201526013602482015272556e617574686f72697a65642061636365737360681b6044820152606401610420565b816101200151610ca95760405162461bcd60e51b815260206004820152601760248201527621b7b73a3930b1ba1034b9903737ba1030b1ba34bb329760491b6044820152606401610420565b60005b826101400151811015610d535760008181526020839052604090206002015460ff16158015610cfa575060c0830151600082815260208490526040902060010154610cf791906132c2565b42115b15610d4b57610d4b84836000848152602001908152602001600020600001546040518060400160405280601481526020017352656e7420746f2070616964206f6e2074696d6560601b8152506128ad565b600101610cac565b50505050565b60036020818152600092835260409283902080546001820154600283015494830154600484015460058501546006860154600787015460088801546009890154600a8a01548d5160c08101909e52600b8b0180548f52600c8c0180549b9f6001600160a01b039b8c169f909b169d999c989b979a96999598949760ff90941696929592939192840191610deb90613148565b80601f0160208091040260200160405190810160405280929190818152602001828054610e1790613148565b8015610e645780601f10610e3957610100808354040283529160200191610e64565b820191906000526020600020905b815481529060010190602001808311610e4757829003601f168201915b50505050508152602001600282018054610e7d90613148565b80601f0160208091040260200160405190810160405280929190818152602001828054610ea990613148565b8015610ef65780601f10610ecb57610100808354040283529160200191610ef6565b820191906000526020600020905b815481529060010190602001808311610ed957829003601f168201915b50505050508152602001600382018054610f0f90613148565b80601f0160208091040260200160405190810160405280929190818152602001828054610f3b90613148565b8015610f885780601f10610f5d57610100808354040283529160200191610f88565b820191906000526020600020905b815481529060010190602001808311610f6b57829003601f168201915b505050918352505060048201546001600160a01b03166020820152600582018054604090920191610fb890613148565b80601f0160208091040260200160405190810160405280929190818152602001828054610fe490613148565b80156110315780601f1061100657610100808354040283529160200191611031565b820191906000526020600020905b81548152906001019060200180831161101457829003601f168201915b50505050508152505090508c565b611047612c09565b60008060008481526020019081526020016000206040518060c00160405290816000820154815260200160018201805461108090613148565b80601f01602080910402602001604051908101604052809291908181526020018280546110ac90613148565b80156110f95780601f106110ce576101008083540402835291602001916110f9565b820191906000526020600020905b8154815290600101906020018083116110dc57829003601f168201915b5050505050815260200160028201805461111290613148565b80601f016020809104026020016040519081016040528092919081815260200182805461113e90613148565b801561118b5780601f106111605761010080835404028352916020019161118b565b820191906000526020600020905b81548152906001019060200180831161116e57829003601f168201915b505050505081526020016003820180546111a490613148565b80601f01602080910402602001604051908101604052809291908181526020018280546111d090613148565b801561121d5780601f106111f25761010080835404028352916020019161121d565b820191906000526020600020905b81548152906001019060200180831161120057829003601f168201915b505050918352505060048201546001600160a01b0316602082015260058201805460409092019161124d90613148565b80601f016020809104026020016040519081016040528092919081815260200182805461127990613148565b80156112c65780601f1061129b576101008083540402835291602001916112c6565b820191906000526020600020905b8154815290600101906020018083116112a957829003601f168201915b50505091909252509195945050505050565b60408051608080820183526000808352602080840182905283850182905260609384018290528682526004815284822086835281529084902084519283018552805483526001810154918301919091526002015460ff80821615159483019490945261010090049092161515908201525b92915050565b611357612c48565b60008281526003602081815260408084208151610180810183528154815260018201546001600160a01b03908116828601526002830154168184015293810154606085015260048101546080850152600581015460a0850152600681015460c080860191909152600782015460e08601526008820154610100860152600982015460ff161515610120860152600a8201546101408601528251908101909252600b810180548352600c82018054929461016087019493908401919061141b90613148565b80601f016020809104026020016040519081016040528092919081815260200182805461144790613148565b80156114945780601f1061146957610100808354040283529160200191611494565b820191906000526020600020905b81548152906001019060200180831161147757829003601f168201915b505050505081526020016002820180546114ad90613148565b80601f01602080910402602001604051908101604052809291908181526020018280546114d990613148565b80156115265780601f106114fb57610100808354040283529160200191611526565b820191906000526020600020905b81548152906001019060200180831161150957829003601f168201915b5050505050815260200160038201805461153f90613148565b80601f016020809104026020016040519081016040528092919081815260200182805461156b90613148565b80156115b85780601f1061158d576101008083540402835291602001916115b8565b820191906000526020600020905b81548152906001019060200180831161159b57829003601f168201915b505050918352505060048201546001600160a01b031660208201526005820180546040909201916115e890613148565b80601f016020809104026020016040519081016040528092919081815260200182805461161490613148565b80156116615780601f1061163657610100808354040283529160200191611661565b820191906000526020600020905b81548152906001019060200180831161164457829003601f168201915b505050919092525050509052509392505050565b60008181526003602081815260408084208151610180810183528154815260018201546001600160a01b03908116828601526002830154168184015293810154606085015260048101546080850152600581015460a0850152600681015460c080860191909152600782015460e08601526008820154610100860152600982015460ff161515610120860152600a8201546101408601528251908101909252600b810180548352600c8201805487969593946101608701949093929084019161173d90613148565b80601f016020809104026020016040519081016040528092919081815260200182805461176990613148565b80156117b65780601f1061178b576101008083540402835291602001916117b6565b820191906000526020600020905b81548152906001019060200180831161179957829003601f168201915b505050505081526020016002820180546117cf90613148565b80601f01602080910402602001604051908101604052809291908181526020018280546117fb90613148565b80156118485780601f1061181d57610100808354040283529160200191611848565b820191906000526020600020905b81548152906001019060200180831161182b57829003601f168201915b5050505050815260200160038201805461186190613148565b80601f016020809104026020016040519081016040528092919081815260200182805461188d90613148565b80156118da5780601f106118af576101008083540402835291602001916118da565b820191906000526020600020905b8154815290600101906020018083116118bd57829003601f168201915b505050918352505060048201546001600160a01b0316602082015260058201805460409092019161190a90613148565b80601f016020809104026020016040519081016040528092919081815260200182805461193690613148565b80156119835780601f1061195857610100808354040283529160200191611983565b820191906000526020600020905b81548152906001019060200180831161196657829003601f168201915b505050919092525050509052506000848152600260209081526040808320828501516001600160a01b0316845290915290205490915060ff1680156119ed57506000838152600260209081526040808320848201516001600160a01b0316845290915290205460ff165b9392505050565b600081815260036020526040902060018101546001600160a01b0316331480611a29575060028101546001600160a01b031633145b611a865760405162461bcd60e51b815260206004820152602860248201527f5369676e65722068617320746f20626520656974686572206c6573736f72206f60448201526739103632b0b9b29760c11b6064820152608401610420565b600082815260026020908152604080832033845290915290205460ff1615611b025760405162461bcd60e51b815260206004820152602960248201527f436f6e747261637420697320616c7265616479207369676e6564206279207468604482015268329039b4b3b732b29760b91b6064820152608401610420565b60008281526002602090815260408083203380855290835292819020805460ff191660011790558051858152918201929092527fcd3b1fcca80f9caae633c3e13546995d3810e561957af92839f070c46571942c910160405180910390a1600082815260026020908152604080832060018501546001600160a01b0316845290915290205460ff168015611bbb57506000828152600260208181526040808420928501546001600160a01b0316845291905290205460ff165b15611c0a5760098101805460ff191660011790556040517f73edfb7736e2a79d626edb978d46bcd467644e8a44cbe706358022b6a6d361ec90611c019084815260200190565b60405180910390a15b5050565b60008281526003602081815260408084208151610180810183528154815260018201546001600160a01b03908116828601526002830154168184015293810154606085015260048101546080850152600581015460a0850152600681015460c080860191909152600782015460e08601526008820154610100860152600982015460ff161515610120860152600a8201546101408601528251908101909252600b810180548352600c820180549294610160870194939084019190611cd290613148565b80601f0160208091040260200160405190810160405280929190818152602001828054611cfe90613148565b8015611d4b5780601f10611d2057610100808354040283529160200191611d4b565b820191906000526020600020905b815481529060010190602001808311611d2e57829003601f168201915b50505050508152602001600282018054611d6490613148565b80601f0160208091040260200160405190810160405280929190818152602001828054611d9090613148565b8015611ddd5780601f10611db257610100808354040283529160200191611ddd565b820191906000526020600020905b815481529060010190602001808311611dc057829003601f168201915b50505050508152602001600382018054611df690613148565b80601f0160208091040260200160405190810160405280929190818152602001828054611e2290613148565b8015611e6f5780601f10611e4457610100808354040283529160200191611e6f565b820191906000526020600020905b815481529060010190602001808311611e5257829003601f168201915b505050918352505060048201546001600160a01b03166020820152600582018054604090920191611e9f90613148565b80601f0160208091040260200160405190810160405280929190818152602001828054611ecb90613148565b8015611f185780601f10611eed57610100808354040283529160200191611f18565b820191906000526020600020905b815481529060010190602001808311611efb57829003601f168201915b50505050508152505081525050905080602001516001600160a01b0316336001600160a01b031614611fa15760405162461bcd60e51b815260206004820152602c60248201527f4f6e6c79206c6573736f722063616e20617070726f76652072656e742062656960448201526b3733903932b1b2b4bb32b21760a11b6064820152608401610420565b600083815260046020908152604080832085845290915290206002810154610100900460ff16156120145760405162461bcd60e51b815260206004820152601c60248201527f5061796d656e7420697320616c726561647920617070726f7665642e000000006044820152606401610420565b60028101805461ff00191661010017905560408051858152602081018590527f5110597352822d9823429fb693bb377b5b4f716bd69f2419b80655e321be91c191015b60405180910390a150505050565b6040805160c08101825286815260208082018781528284018790526060830186905233608084015260a08301859052600180546000908152928390529390912082518155905191928392908201906120bd90826131d3565b50604082015160028201906120d290826131d3565b50606082015160038201906120e790826131d3565b5060808201516004820180546001600160a01b0319166001600160a01b0390921691909117905560a0820151600582019061212290826131d3565b50506001805491506000612135836132a9565b90915550508051604080519182523360208301527f6d1df3f8f7b05059a3dc98f63e0b87dcc88128522891dbff1182e72016faf96b910160405180910390a1505050505050565b60008281526003602081815260408084208151610180810183528154815260018201546001600160a01b03908116828601526002830154168184015293810154606085015260048101546080850152600581015460a0850152600681015460c080860191909152600782015460e08601526008820154610100860152600982015460ff161515610120860152600a8201546101408601528251908101909252600b810180548352600c82018054929461016087019493908401919061224090613148565b80601f016020809104026020016040519081016040528092919081815260200182805461226c90613148565b80156122b95780601f1061228e576101008083540402835291602001916122b9565b820191906000526020600020905b81548152906001019060200180831161229c57829003601f168201915b505050505081526020016002820180546122d290613148565b80601f01602080910402602001604051908101604052809291908181526020018280546122fe90613148565b801561234b5780601f106123205761010080835404028352916020019161234b565b820191906000526020600020905b81548152906001019060200180831161232e57829003601f168201915b5050505050815260200160038201805461236490613148565b80601f016020809104026020016040519081016040528092919081815260200182805461239090613148565b80156123dd5780601f106123b2576101008083540402835291602001916123dd565b820191906000526020600020905b8154815290600101906020018083116123c057829003601f168201915b505050918352505060048201546001600160a01b0316602082015260058201805460409092019161240d90613148565b80601f016020809104026020016040519081016040528092919081815260200182805461243990613148565b80156124865780601f1061245b57610100808354040283529160200191612486565b820191906000526020600020905b81548152906001019060200180831161246957829003601f168201915b5050509190925250505090525060008481526004602090815260408083208684528252918290208251608081018452815481526001820154928101929092526002015460ff808216151583850152610100909104161515606082015290820151919250906001600160a01b031633146125415760405162461bcd60e51b815260206004820152601860248201527f4f6e6c79206c656173652063616e207061792072656e742e00000000000000006044820152606401610420565b81610120015161258d5760405162461bcd60e51b815260206004820152601760248201527621b7b73a3930b1ba1034b9903737ba1030b1ba34bb329760491b6044820152606401610420565b816060015134146125d85760405162461bcd60e51b815260206004820152601560248201527424b731b7b93932b1ba103932b73a103b30b63ab29760591b6044820152606401610420565b816060015134146126235760405162461bcd60e51b815260206004820152601560248201527424b731b7b93932b1ba103932b73a103b30b63ab29760591b6044820152606401610420565b8060400151156126855760405162461bcd60e51b815260206004820152602760248201527f54686973207061796d656e742068617320616c7265616479206265656e20706160448201526634b2103337b91760c91b6064820152608401610420565b600082602001516001600160a01b03163460405160006040518083038185875af1925050503d80600081146126d6576040519150601f19603f3d011682016040523d82523d6000602084013e6126db565b606091505b50509050806127235760405162461bcd60e51b81526020600482015260146024820152732330b4b632b2103a379039b2b732103932b73a1760611b6044820152606401610420565b6000858152600460209081526040808320878452825291829020600201805460ff1916600117905581513381529081018790529081018590524260608201527f2d2423890bc33b8290b6bf4c590927cc8a367ef6c70744a602984e45a4bf11779060800160405180910390a15050505050565b60005b8481101561287c5760006127ae8260016132c2565b6127b890856132d5565b90506000612814836127ca84896132c2565b604080516080810182526000808252602082018190529181018290526060810191909152506040805160808101825292835260208301919091526000908201819052606082015290565b60008581526004602090815260408083208784528252918290208351815590830151600180830191909155918301516002909101805460609094015115156101000261ff00199215159290921661ffff19909416939093171790915590920191506127999050565b506040518181527fb151c83bca2c7216c7fb7d05eda52844b4f24a1be7aa549c44f5c46e94aa456390602001612057565b60008381526003602081815260408084208151610180810183528154815260018201546001600160a01b03908116828601526002830154168184015293810154606085015260048101546080850152600581015460a0850152600681015460c080860191909152600782015460e08601526008820154610100860152600982015460ff161515610120860152600a8201546101408601528251908101909252600b810180548352600c82018054929461016087019493908401919061297190613148565b80601f016020809104026020016040519081016040528092919081815260200182805461299d90613148565b80156129ea5780601f106129bf576101008083540402835291602001916129ea565b820191906000526020600020905b8154815290600101906020018083116129cd57829003601f168201915b50505050508152602001600282018054612a0390613148565b80601f0160208091040260200160405190810160405280929190818152602001828054612a2f90613148565b8015612a7c5780601f10612a5157610100808354040283529160200191612a7c565b820191906000526020600020905b815481529060010190602001808311612a5f57829003601f168201915b50505050508152602001600382018054612a9590613148565b80601f0160208091040260200160405190810160405280929190818152602001828054612ac190613148565b8015612b0e5780601f10612ae357610100808354040283529160200191612b0e565b820191906000526020600020905b815481529060010190602001808311612af157829003601f168201915b505050918352505060048201546001600160a01b03166020820152600582018054604090920191612b3e90613148565b80601f0160208091040260200160405190810160405280929190818152602001828054612b6a90613148565b8015612bb75780601f10612b8c57610100808354040283529160200191612bb7565b820191906000526020600020905b815481529060010190602001808311612b9a57829003601f168201915b50505091909252505050905250600061012082015260408082015190519192507fad8ed58b9efb725148dc499fbdb9567a4c40f74ab89e9af73b2676cf893f23549161205791879187919087906132ec565b6040518060c001604052806000815260200160608152602001606081526020016060815260200160006001600160a01b03168152602001606081525090565b6040518061018001604052806000815260200160006001600160a01b0316815260200160006001600160a01b0316815260200160008152602001600081526020016000815260200160008152602001600081526020016000815260200160001515815260200160008152602001612cbd612c09565b905290565b80356001600160a01b0381168114612cd957600080fd5b919050565b60008060008060008060008060008060006101608c8e031215612d0057600080fd5b8b359a50612d1060208d01612cc2565b9950612d1e60408d01612cc2565b9a9d999c50999a60608101359a5060808101359960a0820135995060c0820135985060e0820135975061010082013596506101208201359550610140909101359350915050565b60008060408385031215612d7857600080fd5b50508035926020909101359150565b600060208284031215612d9957600080fd5b5035919050565b6000815180845260005b81811015612dc657602081850181015186830182015201612daa565b506000602082860101526020601f19601f83011685010191505092915050565b805182526000602082015160c06020850152612e0560c0850182612da0565b905060408301518482036040860152612e1e8282612da0565b91505060608301518482036060860152612e388282612da0565b91505060018060a01b03608084015116608085015260a083015184820360a0860152612e648282612da0565b95945050505050565b60006101808e835260018060a01b03808f166020850152808e166040850152508b60608401528a60808401528960a08401528860c08401528760e0840152866101008401528515156101208401528461014084015280610160840152612ed581840185612de6565b9f9e505050505050505050505050505050565b6020815260006119ed6020830184612de6565b602081528151602082015260006020830151612f2260408401826001600160a01b03169052565b5060408301516001600160a01b03811660608401525060608301516080830152608083015160a083015260a083015160c083015260c083015160e083015260e0830151610100818185015280850151915050610120818185015280850151915050610140612f938185018315159052565b84015161016084810191909152840151610180808501529050612fba6101a0840182612de6565b949350505050565b60008060408385031215612fd557600080fd5b82359150612fe560208401612cc2565b90509250929050565b634e487b7160e01b600052604160045260246000fd5b600082601f83011261301557600080fd5b813567ffffffffffffffff8082111561303057613030612fee565b604051601f8301601f19908116603f0116810190828211818310171561305857613058612fee565b8160405283815286602085880101111561307157600080fd5b836020870160208301376000602085830101528094505050505092915050565b600080600080600060a086880312156130a957600080fd5b85359450602086013567ffffffffffffffff808211156130c857600080fd5b6130d489838a01613004565b955060408801359150808211156130ea57600080fd5b6130f689838a01613004565b9450606088013591508082111561310c57600080fd5b61311889838a01613004565b9350608088013591508082111561312e57600080fd5b5061313b88828901613004565b9150509295509295909350565b600181811c9082168061315c57607f821691505b60208210810361317c57634e487b7160e01b600052602260045260246000fd5b50919050565b601f8211156131ce576000816000526020600020601f850160051c810160208610156131ab5750805b601f850160051c820191505b818110156131ca578281556001016131b7565b5050505b505050565b815167ffffffffffffffff8111156131ed576131ed612fee565b613201816131fb8454613148565b84613182565b602080601f831160018114613236576000841561321e5750858301515b600019600386901b1c1916600185901b1785556131ca565b600085815260208120601f198616915b8281101561326557888601518255948401946001909101908401613246565b50858210156132835787850151600019600388901b60f8161c191681555b5050505050600190811b01905550565b634e487b7160e01b600052601160045260246000fd5b6000600182016132bb576132bb613293565b5060010190565b8082018082111561134957611349613293565b808202811582820484141761134957611349613293565b84815283602082015260018060a01b03831660408201526080606082015260006133196080830184612da0565b969550505050505056fea2646970667358221220e0da6d46f3f8c6b4778269933a6026fa46e0d548d0fe6d87dd22ab8c487630d764736f6c63430008180033","linkReferences":{}},"methodIdentifiers":{"approveRentReceived(uint256,uint256)":"9ee5872d","checkPaymentStatus(uint256)":"2dd6ad2b","contractCount()":"8736381a","contractSignatures(uint256,address)":"c56ac4b6","contracts(uint256)":"474da79a","createRentContract(uint256,address,address,uint256,uint256,uint256,uint256,uint256,uint256,uint256,uint256)":"089befe3","getContractById(uint256)":"8ba9ac6f","getPaymentsByContractIdAndPaymentId(uint256,uint256)":"615b6089","getPropertyById(uint256)":"59fe18eb","isContractSigned(uint256)":"93a43c19","listPropertyForRent(uint256,string,string,string,string)":"d0153bb9","payRent(uint256,uint256)":"fc2bf8f0","payments(uint256,uint256)":"2655bd73","propertiesCount()":"11447e87","signContract(uint256)":"9537e8d1"},"id":23}